8=FIXT.1.1|9=101|35=A|9997=1319|52=20111023-15:54:58|34=1|1137=0|108=5|98=0|9998=374498|56=BRKR|49=INVMGR|9999=902641|10=118|8=FIXT.1.1|9=83|35=X|9997=1319|52=20111023-15:54:58|34=2|9998=374498|56=BRKR|49=INVMGR|9999=903863|10=099|8=FIXT.1.1|9=83|35=X|9997=1319|52=20111023-15:54:58|34=3|9998=374498|56=BRKR|49=INVMGR|9999=903925|10=099|8=FIXT.1.1|9=83|35=X|9997=1319|52=20111023-15:54:58|34=4|9998=374498|56=BRKR|49=INVMGR|9999=904094|10=099|8=FIXT.1.1|9=83|35=X|9997=1319|52=20111023-15:54:58|34=5|9998=374498|56=BRKR|49=INVMGR|9999=904155|10=099|8=FIXT.1.1|9=83|35=X|9997=1319|52=20111023-15:54:58|34=6|9998=374498|56=BRKR|49=INVMGR|9999=904256|10=099|8=FIXT.1.1|9=83|35=X|9997=1319|52=20111023-15:54:58|34=7|9998=374498|56=BRKR|49=INVMGR|9999=904315|10=099|8=FIXT.1.1|9=83|35=X|9997=1319|52=20111023-15:54:58|34=8|9998=374498|56=BRKR|49=INVMGR|9999=904373|10=099|8=FIXT.1.1|9=83|35=X|9997=1319|52=20111023-15:54:58|34=9|9998=374498|56=BRKR|49=INVMGR|9999=904438|10=099|8=FIXT.1.1|9=84|35=X|9997=1319|52=20111023-15:54:58|34=10|9998=374498|56=BRKR|49=INVMGR|9999=904498|10=100|8=FIXT.1.1|9=84|35=X|9997=1319|52=20111023-15:54:58|34=11|9998=374498|56=BRKR|49=INVMGR|9999=904555|10=100|8=FIXT.1.1|9=84|35=X|9997=1319|52=20111023-15:54:58|34=12|9998=374498|56=BRKR|49=INVMGR|9999=904619|10=100|8=FIXT.1.1|9=84|35=X|9997=1319|52=20111023-15:54:58|34=13|9998=374498|56=BRKR|49=INVMGR|9999=904675|10=100|8=FIXT.1.1|9=84|35=X|9997=1319|52=20111023-15:54:58|34=14|9998=374498|56=BRKR|49=INVMGR|9999=904737|10=100|8=FIXT.1.1|9=84|35=X|9997=1319|52=20111023-15:54:58|34=15|9998=374498|56=BRKR|49=INVMGR|9999=904801|10=100|8=FIXT.1.1|9=84|35=X|9997=1319|52=20111023-15:54:58|34=16|9998=374498|56=BRKR|49=INVMGR|9999=904858|10=100|8=FIXT.1.1|9=84|35=X|9997=1319|52=20111023-15:54:58|34=17|9998=374498|56=BRKR|49=INVMGR|9999=904913|10=100|8=FIXT.1.1|9=84|35=X|9997=1319|52=20111023-15:54:58|34=18|9998=374498|56=BRKR|49=INVMGR|9999=904971|10=100|8=FIXT.1.1|9=84|35=X|9997=1319|52=20111023-15:54:58|34=19|9998=374498|56=BRKR|49=INVMGR|9999=905015|10=100|8=FIXT.1.1|9=84|35=X|9997=1319|52=20111023-15:54:58|34=20|9998=374498|56=BRKR|49=INVMGR|9999=905055|10=100|8=FIXT.1.1|9=84|35=X|9997=1319|52=20111023-15:54:58|34=21|9998=374498|56=BRKR|49=INVMGR|9999=905102|10=100|8=FIXT.1.1|9=84|35=X|9997=1319|52=20111023-15:54:58|34=22|9998=374498|56=BRKR|49=INVMGR|9999=905148|10=100|8=FIXT.1.1|9=84|35=X|9997=1319|52=20111023-15:54:58|34=23|9998=374498|56=BRKR|49=INVMGR|9999=905190|10=100|8=FIXT.1.1|9=84|35=X|9997=1319|52=20111023-15:54:58|34=24|9998=374498|56=BRKR|49=INVMGR|9999=905230|10=100|8=FIXT.1.1|9=84|35=X|9997=1319|52=20111023-15:54:58|34=25|9998=374498|56=BRKR|49=INVMGR|9999=905270|10=100|8=FIXT.1.1|9=84|35=X|9997=1319|52=20111023-15:54:58|34=26|9998=374498|56=BRKR|49=INVMGR|9999=905319|10=100|8=FIXT.1.1|9=84|35=X|9997=1319|52=20111023-15:54:58|34=27|9998=374498|56=BRKR|49=INVMGR|9999=905363|10=100|8=FIXT.1.1|9=84|35=X|9997=1319|52=20111023-15:54:58|34=28|9998=374498|56=BRKR|49=INVMGR|9999=905407|10=100|8=FIXT.1.1|9=84|35=X|9997=1319|52=20111023-15:54:58|34=29|9998=374498|56=BRKR|49=INVMGR|9999=905453|10=100|8=FIXT.1.1|9=84|35=X|9997=1319|52=20111023-15:54:58|34=30|9998=374498|56=BRKR|49=INVMGR|9999=905498|10=100|8=FIXT.1.1|9=84|35=X|9997=1319|52=20111023-15:54:58|34=31|9998=374498|56=BRKR|49=INVMGR|9999=905549|10=100|8=FIXT.1.1|9=84|35=X|9997=1319|52=20111023-15:54:58|34=32|9998=374498|56=BRKR|49=INVMGR|9999=905591|10=100|8=FIXT.1.1|9=84|35=X|9997=1319|52=20111023-15:54:58|34=33|9998=374498|56=BRKR|49=INVMGR|9999=905638|10=100|8=FIXT.1.1|9=84|35=X|9997=1319|52=20111023-15:54:58|34=34|9998=374498|56=BRKR|49=INVMGR|9999=905680|10=100|8=FIXT.1.1|9=84|35=X|9997=1319|52=20111023-15:54:58|34=35|9998=374498|56=BRKR|49=INVMGR|9999=905721|10=100|8=FIXT.1.1|9=84|35=X|9997=1319|52=20111023-15:54:58|34=36|9998=374498|56=BRKR|49=INVMGR|9999=905747|10=100|8=FIXT.1.1|9=84|35=X|9997=1319|52=20111023-15:54:58|34=37|9998=374498|56=BRKR|49=INVMGR|9999=905772|10=100|8=FIXT.1.1|9=84|35=X|9997=1319|52=20111023-15:54:58|34=38|9998=374498|56=BRKR|49=INVMGR|9999=905801|10=100|8=FIXT.1.1|9=84|35=X|9997=1319|52=20111023-15:54:58|34=39|9998=374498|56=BRKR|49=INVMGR|9999=905831|10=100|8=FIXT.1.1|9=84|35=X|9997=1319|52=20111023-15:54:58|34=40|9998=374498|56=BRKR|49=INVMGR|9999=905857|10=100|8=FIXT.1.1|9=84|35=X|9997=1319|52=20111023-15:54:58|34=41|9998=374498|56=BRKR|49=INVMGR|9999=905887|10=100|8=FIXT.1.1|9=84|35=X|9997=1319|52=20111023-15:54:58|34=42|9998=374498|56=BRKR|49=INVMGR|9999=905912|10=100|8=FIXT.1.1|9=84|35=X|9997=1319|52=20111023-15:54:58|34=43|9998=374498|56=BRKR|49=INVMGR|9999=905938|10=100|8=FIXT.1.1|9=84|35=X|9997=1319|52=20111023-15:54:58|34=44|9998=374498|56=BRKR|49=INVMGR|9999=905975|10=100|8=FIXT.1.1|9=84|35=X|9997=1319|52=20111023-15:54:58|34=45|9998=374498|56=BRKR|49=INVMGR|9999=906011|10=100|8=FIXT.1.1|9=84|35=X|9997=1319|52=20111023-15:54:58|34=46|9998=374498|56=BRKR|49=INVMGR|9999=906051|10=100|8=FIXT.1.1|9=84|35=X|9997=1319|52=20111023-15:54:58|34=47|9998=374498|56=BRKR|49=INVMGR|9999=906096|10=100|8=FIXT.1.1|9=84|35=X|9997=1319|52=20111023-15:54:58|34=48|9998=374498|56=BRKR|49=INVMGR|9999=906135|10=100|8=FIXT.1.1|9=84|35=X|9997=1319|52=20111023-15:54:58|34=49|9998=374498|56=BRKR|49=INVMGR|9999=906189|10=100|8=FIXT.1.1|9=84|35=X|9997=1319|52=20111023-15:54:58|34=50|9998=374498|56=BRKR|49=INVMGR|9999=906233|10=100|8=FIXT.1.1|9=84|35=X|9997=1319|52=20111023-15:54:58|34=51|9998=374498|56=BRKR|49=INVMGR|9999=906276|10=100|8=FIXT.1.1|9=84|35=X|9997=1319|52=20111023-15:54:58|34=52|9998=374498|56=BRKR|49=INVMGR|9999=906303|10=100|8=FIXT.1.1|9=84|35=X|9997=1319|52=20111023-15:54:58|34=53|9998=374498|56=BRKR|49=INVMGR|9999=906328|10=100|8=FIXT.1.1|9=84|35=X|9997=1319|52=20111023-15:54:58|34=54|9998=374498|56=BRKR|49=INVMGR|9999=906353|10=100|8=FIXT.1.1|9=84|35=X|9997=1319|52=20111023-15:54:58|34=55|9998=374498|56=BRKR|49=INVMGR|9999=906391|10=100|8=FIXT.1.1|9=84|35=X|9997=1319|52=20111023-15:54:58|34=56|9998=374498|56=BRKR|49=INVMGR|9999=906420|10=100|8=FIXT.1.1|9=84|35=X|9997=1319|52=20111023-15:54:58|34=57|9998=374498|56=BRKR|49=INVMGR|9999=906447|10=100|8=FIXT.1.1|9=84|35=X|9997=1319|52=20111023-15:54:58|34=58|9998=374498|56=BRKR|49=INVMGR|9999=906477|10=100|8=FIXT.1.1|9=84|35=X|9997=1319|52=20111023-15:54:58|34=59|9998=374498|56=BRKR|49=INVMGR|9999=906502|10=100|8=FIXT.1.1|9=84|35=X|9997=1319|52=20111023-15:54:58|34=60|9998=374498|56=BRKR|49=INVMGR|9999=906530|10=100|8=FIXT.1.1|9=84|35=X|9997=1319|52=20111023-15:54:58|34=61|9998=374498|56=BRKR|49=INVMGR|9999=906555|10=100|8=FIXT.1.1|9=84|35=X|9997=1319|52=20111023-15:54:58|34=62|9998=374498|56=BRKR|49=INVMGR|9999=906601|10=100|8=FIXT.1.1|9=84|35=X|9997=1319|52=20111023-15:54:58|34=63|9998=374498|56=BRKR|49=INVMGR|9999=906643|10=100|8=FIXT.1.1|9=84|35=X|9997=1319|52=20111023-15:54:58|34=64|9998=374498|56=BRKR|49=INVMGR|9999=906689|10=100|8=FIXT.1.1|9=84|35=X|9997=1319|52=20111023-15:54:58|34=65|9998=374498|56=BRKR|49=INVMGR|9999=906736|10=100|8=FIXT.1.1|9=84|35=X|9997=1319|52=20111023-15:54:58|34=66|9998=374498|56=BRKR|49=INVMGR|9999=906775|10=100|8=FIXT.1.1|9=84|35=X|9997=1319|52=20111023-15:54:58|34=67|9998=374498|56=BRKR|49=INVMGR|9999=906814|10=100|8=FIXT.1.1|9=84|35=X|9997=1319|52=20111023-15:54:58|34=68|9998=374498|56=BRKR|49=INVMGR|9999=906858|10=100|8=FIXT.1.1|9=84|35=X|9997=1319|52=20111023-15:54:58|34=69|9998=374498|56=BRKR|49=INVMGR|9999=906887|10=100|8=FIXT.1.1|9=84|35=X|9997=1319|52=20111023-15:54:58|34=70|9998=374498|56=BRKR|49=INVMGR|9999=906921|10=100|8=FIXT.1.1|9=84|35=X|9997=1319|52=20111023-15:54:58|34=71|9998=374498|56=BRKR|49=INVMGR|9999=906949|10=100|8=FIXT.1.1|9=84|35=X|9997=1319|52=20111023-15:54:58|34=72|9998=374498|56=BRKR|49=INVMGR|9999=906988|10=100|8=FIXT.1.1|9=84|35=X|9997=1319|52=20111023-15:54:58|34=73|9998=374498|56=BRKR|49=INVMGR|9999=907016|10=100|8=FIXT.1.1|9=84|35=X|9997=1319|52=20111023-15:54:58|34=74|9998=374498|56=BRKR|49=INVMGR|9999=907044|10=100|8=FIXT.1.1|9=84|35=X|9997=1319|52=20111023-15:54:58|34=75|9998=374498|56=BRKR|49=INVMGR|9999=907069|10=100|8=FIXT.1.1|9=84|35=X|9997=1319|52=20111023-15:54:58|34=76|9998=374498|56=BRKR|49=INVMGR|9999=907098|10=100|8=FIXT.1.1|9=84|35=X|9997=1319|52=20111023-15:54:58|34=77|9998=374498|56=BRKR|49=INVMGR|9999=907123|10=100|8=FIXT.1.1|9=84|35=X|9997=1319|52=20111023-15:54:58|34=78|9998=374498|56=BRKR|49=INVMGR|9999=907152|10=100|8=FIXT.1.1|9=84|35=X|9997=1319|52=20111023-15:54:58|34=79|9998=374498|56=BRKR|49=INVMGR|9999=907180|10=100|8=FIXT.1.1|9=84|35=X|9997=1319|52=20111023-15:54:58|34=80|9998=374498|56=BRKR|49=INVMGR|9999=907225|10=100|8=FIXT.1.1|9=84|35=X|9997=1319|52=20111023-15:54:58|34=81|9998=374498|56=BRKR|49=INVMGR|9999=907272|10=100|8=FIXT.1.1|9=84|35=X|9997=1319|52=20111023-15:54:58|34=82|9998=374498|56=BRKR|49=INVMGR|9999=907312|10=100|8=FIXT.1.1|9=84|35=X|9997=1319|52=20111023-15:54:58|34=83|9998=374498|56=BRKR|49=INVMGR|9999=907352|10=100|8=FIXT.1.1|9=84|35=X|9997=1319|52=20111023-15:54:58|34=84|9998=374498|56=BRKR|49=INVMGR|9999=908035|10=100|8=FIXT.1.1|9=84|35=X|9997=1319|52=20111023-15:54:58|34=85|9998=374498|56=BRKR|49=INVMGR|9999=908075|10=100|8=FIXT.1.1|9=84|35=X|9997=1319|52=20111023-15:54:58|34=86|9998=374498|56=BRKR|49=INVMGR|9999=908128|10=100|8=FIXT.1.1|9=84|35=X|9997=1319|52=20111023-15:54:58|34=87|9998=374498|56=BRKR|49=INVMGR|9999=908171|10=100|8=FIXT.1.1|9=84|35=X|9997=1319|52=20111023-15:54:58|34=88|9998=374498|56=BRKR|49=INVMGR|9999=908225|10=100|8=FIXT.1.1|9=84|35=X|9997=1319|52=20111023-15:54:58|34=89|9998=374498|56=BRKR|49=INVMGR|9999=908268|10=100|8=FIXT.1.1|9=84|35=X|9997=1319|52=20111023-15:54:58|34=90|9998=374498|56=BRKR|49=INVMGR|9999=908309|10=100|8=FIXT.1.1|9=84|35=X|9997=1319|52=20111023-15:54:58|34=91|9998=374498|56=BRKR|49=INVMGR|9999=908347|10=100|8=FIXT.1.1|9=84|35=X|9997=1319|52=20111023-15:54:58|34=92|9998=374498|56=BRKR|49=INVMGR|9999=908391|10=100|8=FIXT.1.1|9=84|35=X|9997=1319|52=20111023-15:54:58|34=93|9998=374498|56=BRKR|49=INVMGR|9999=908429|10=100|8=FIXT.1.1|9=84|35=X|9997=1319|52=20111023-15:54:58|34=94|9998=374498|56=BRKR|49=INVMGR|9999=908470|10=100|8=FIXT.1.1|9=84|35=X|9997=1319|52=20111023-15:54:58|34=95|9998=374498|56=BRKR|49=INVMGR|9999=908508|10=100|8=FIXT.1.1|9=84|35=X|9997=1319|52=20111023-15:54:58|34=96|9998=374498|56=BRKR|49=INVMGR|9999=908552|10=100|8=FIXT.1.1|9=84|35=X|9997=1319|52=20111023-15:54:58|34=97|9998=374498|56=BRKR|49=INVMGR|9999=908590|10=100|8=FIXT.1.1|9=84|35=X|9997=1319|52=20111023-15:54:58|34=98|9998=374498|56=BRKR|49=INVMGR|9999=908631|10=100|8=FIXT.1.1|9=84|35=X|9997=1319|52=20111023-15:54:58|34=99|9998=374498|56=BRKR|49=INVMGR|9999=908669|10=100|8=FIXT.1.1|9=85|35=X|9997=1319|52=20111023-15:54:58|34=100|9998=374498|56=BRKR|49=INVMGR|9999=908711|10=101|8=FIXT.1.1|9=85|35=X|9997=1319|52=20111023-15:54:58|34=101|9998=374498|56=BRKR|49=INVMGR|9999=908750|10=101|8=FIXT.1.1|9=85|35=X|9997=1319|52=20111023-15:54:58|34=102|9998=374498|56=BRKR|49=INVMGR|9999=908788|10=101|8=FIXT.1.1|9=85|35=X|9997=1319|52=20111023-15:54:58|34=103|9998=374498|56=BRKR|49=INVMGR|9999=908830|10=101|8=FIXT.1.1|9=85|35=X|9997=1319|52=20111023-15:54:58|34=104|9998=374498|56=BRKR|49=INVMGR|9999=908868|10=101|8=FIXT.1.1|9=85|35=X|9997=1319|52=20111023-15:54:58|34=105|9998=374498|56=BRKR|49=INVMGR|9999=908910|10=101|8=FIXT.1.1|9=85|35=X|9997=1319|52=20111023-15:54:58|34=106|9998=374498|56=BRKR|49=INVMGR|9999=908954|10=101|8=FIXT.1.1|9=85|35=X|9997=1319|52=20111023-15:54:58|34=107|9998=374498|56=BRKR|49=INVMGR|9999=908998|10=101|8=FIXT.1.1|9=85|35=X|9997=1319|52=20111023-15:54:58|34=108|9998=374498|56=BRKR|49=INVMGR|9999=909036|10=101|8=FIXT.1.1|9=85|35=X|9997=1319|52=20111023-15:54:58|34=109|9998=374498|56=BRKR|49=INVMGR|9999=909082|10=101|8=FIXT.1.1|9=85|35=X|9997=1319|52=20111023-15:54:58|34=110|9998=374498|56=BRKR|49=INVMGR|9999=909120|10=101|8=FIXT.1.1|9=85|35=X|9997=1319|52=20111023-15:54:58|34=111|9998=374498|56=BRKR|49=INVMGR|9999=909158|10=101|8=FIXT.1.1|9=85|35=X|9997=1319|52=20111023-15:54:58|34=112|9998=374498|56=BRKR|49=INVMGR|9999=909196|10=101|8=FIXT.1.1|9=85|35=X|9997=1319|52=20111023-15:54:58|34=113|9998=374498|56=BRKR|49=INVMGR|9999=909241|10=101|8=FIXT.1.1|9=85|35=X|9997=1319|52=20111023-15:54:58|34=114|9998=374498|56=BRKR|49=INVMGR|9999=909290|10=101|8=FIXT.1.1|9=85|35=X|9997=1319|52=20111023-15:54:58|34=115|9998=374498|56=BRKR|49=INVMGR|9999=909335|10=101|8=FIXT.1.1|9=85|35=X|9997=1319|52=20111023-15:54:58|34=116|9998=374498|56=BRKR|49=INVMGR|9999=909379|10=101|8=FIXT.1.1|9=85|35=X|9997=1319|52=20111023-15:54:58|34=117|9998=374498|56=BRKR|49=INVMGR|9999=909426|10=101|8=FIXT.1.1|9=85|35=X|9997=1319|52=20111023-15:54:58|34=118|9998=374498|56=BRKR|49=INVMGR|9999=909466|10=101|8=FIXT.1.1|9=85|35=X|9997=1319|52=20111023-15:54:58|34=119|9998=374498|56=BRKR|49=INVMGR|9999=909511|10=101|8=FIXT.1.1|9=85|35=X|9997=1319|52=20111023-15:54:58|34=120|9998=374498|56=BRKR|49=INVMGR|9999=910938|10=101|8=FIXT.1.1|9=85|35=X|9997=1319|52=20111023-15:54:58|34=121|9998=374498|56=BRKR|49=INVMGR|9999=911008|10=101|8=FIXT.1.1|9=85|35=X|9997=1319|52=20111023-15:54:58|34=122|9998=374498|56=BRKR|49=INVMGR|9999=911037|10=101|8=FIXT.1.1|9=85|35=X|9997=1319|52=20111023-15:54:58|34=123|9998=374498|56=BRKR|49=INVMGR|9999=911063|10=101|8=FIXT.1.1|9=85|35=X|9997=1319|52=20111023-15:54:58|34=124|9998=374498|56=BRKR|49=INVMGR|9999=911093|10=101|8=FIXT.1.1|9=85|35=X|9997=1319|52=20111023-15:54:58|34=125|9998=374498|56=BRKR|49=INVMGR|9999=911120|10=101|8=FIXT.1.1|9=85|35=X|9997=1319|52=20111023-15:54:58|34=126|9998=374498|56=BRKR|49=INVMGR|9999=911145|10=101|8=FIXT.1.1|9=85|35=X|9997=1319|52=20111023-15:54:58|34=127|9998=374498|56=BRKR|49=INVMGR|9999=911170|10=101|8=FIXT.1.1|9=85|35=X|9997=1319|52=20111023-15:54:58|34=128|9998=374498|56=BRKR|49=INVMGR|9999=911195|10=101|8=FIXT.1.1|9=85|35=X|9997=1319|52=20111023-15:54:58|34=129|9998=374498|56=BRKR|49=INVMGR|9999=911232|10=101|8=FIXT.1.1|9=85|35=X|9997=1319|52=20111023-15:54:58|34=130|9998=374498|56=BRKR|49=INVMGR|9999=911285|10=101|8=FIXT.1.1|9=85|35=X|9997=1319|52=20111023-15:54:58|34=131|9998=374498|56=BRKR|49=INVMGR|9999=911329|10=101|8=FIXT.1.1|9=85|35=X|9997=1319|52=20111023-15:54:58|34=132|9998=374498|56=BRKR|49=INVMGR|9999=911376|10=101|8=FIXT.1.1|9=85|35=X|9997=1319|52=20111023-15:54:58|34=133|9998=374498|56=BRKR|49=INVMGR|9999=911436|10=101|8=FIXT.1.1|9=85|35=X|9997=1319|52=20111023-15:54:58|34=134|9998=374498|56=BRKR|49=INVMGR|9999=911494|10=101|8=FIXT.1.1|9=85|35=X|9997=1319|52=20111023-15:54:58|34=135|9998=374498|56=BRKR|49=INVMGR|9999=911549|10=101|8=FIXT.1.1|9=85|35=X|9997=1319|52=20111023-15:54:58|34=136|9998=374498|56=BRKR|49=INVMGR|9999=911606|10=101|8=FIXT.1.1|9=85|35=X|9997=1319|52=20111023-15:54:58|34=137|9998=374498|56=BRKR|49=INVMGR|9999=911647|10=101|8=FIXT.1.1|9=85|35=X|9997=1319|52=20111023-15:54:58|34=138|9998=374498|56=BRKR|49=INVMGR|9999=911701|10=101|8=FIXT.1.1|9=85|35=X|9997=1319|52=20111023-15:54:58|34=139|9998=374498|56=BRKR|49=INVMGR|9999=911742|10=101|8=FIXT.1.1|9=85|35=X|9997=1319|52=20111023-15:54:58|34=140|9998=374498|56=BRKR|49=INVMGR|9999=911785|10=101|8=FIXT.1.1|9=85|35=X|9997=1319|52=20111023-15:54:58|34=141|9998=374498|56=BRKR|49=INVMGR|9999=911833|10=101|8=FIXT.1.1|9=85|35=X|9997=1319|52=20111023-15:54:58|34=142|9998=374498|56=BRKR|49=INVMGR|9999=911875|10=101|8=FIXT.1.1|9=85|35=X|9997=1319|52=20111023-15:54:58|34=143|9998=374498|56=BRKR|49=INVMGR|9999=911918|10=101|8=FIXT.1.1|9=85|35=X|9997=1319|52=20111023-15:54:58|34=144|9998=374498|56=BRKR|49=INVMGR|9999=911962|10=101|8=FIXT.1.1|9=85|35=X|9997=1319|52=20111023-15:54:58|34=145|9998=374498|56=BRKR|49=INVMGR|9999=912013|10=101|8=FIXT.1.1|9=85|35=X|9997=1319|52=20111023-15:54:58|34=146|9998=374498|56=BRKR|49=INVMGR|9999=912059|10=101|8=FIXT.1.1|9=85|35=X|9997=1319|52=20111023-15:54:58|34=147|9998=374498|56=BRKR|49=INVMGR|9999=912100|10=101|8=FIXT.1.1|9=85|35=X|9997=1319|52=20111023-15:54:58|34=148|9998=374498|56=BRKR|49=INVMGR|9999=912143|10=101|8=FIXT.1.1|9=85|35=X|9997=1319|52=20111023-15:54:58|34=149|9998=374498|56=BRKR|49=INVMGR|9999=912195|10=101|8=FIXT.1.1|9=85|35=X|9997=1319|52=20111023-15:54:58|34=150|9998=374498|56=BRKR|49=INVMGR|9999=912244|10=101|8=FIXT.1.1|9=85|35=X|9997=1319|52=20111023-15:54:58|34=151|9998=374498|56=BRKR|49=INVMGR|9999=912284|10=101|8=FIXT.1.1|9=85|35=X|9997=1319|52=20111023-15:54:58|34=152|9998=374498|56=BRKR|49=INVMGR|9999=912330|10=101|8=FIXT.1.1|9=85|35=X|9997=1319|52=20111023-15:54:58|34=153|9998=374498|56=BRKR|49=INVMGR|9999=912374|10=101|8=FIXT.1.1|9=85|35=X|9997=1319|52=20111023-15:54:58|34=154|9998=374498|56=BRKR|49=INVMGR|9999=912424|10=101|8=FIXT.1.1|9=85|35=X|9997=1319|52=20111023-15:54:58|34=155|9998=374498|56=BRKR|49=INVMGR|9999=912467|10=101|8=FIXT.1.1|9=85|35=X|9997=1319|52=20111023-15:54:58|34=156|9998=374498|56=BRKR|49=INVMGR|9999=912514|10=101|8=FIXT.1.1|9=85|35=X|9997=1319|52=20111023-15:54:58|34=157|9998=374498|56=BRKR|49=INVMGR|9999=912604|10=101|8=FIXT.1.1|9=85|35=X|9997=1319|52=20111023-15:54:58|34=158|9998=374498|56=BRKR|49=INVMGR|9999=912647|10=101|8=FIXT.1.1|9=85|35=X|9997=1319|52=20111023-15:54:58|34=159|9998=374498|56=BRKR|49=INVMGR|9999=912695|10=101|8=FIXT.1.1|9=85|35=X|9997=1319|52=20111023-15:54:58|34=160|9998=374498|56=BRKR|49=INVMGR|9999=912736|10=101|8=FIXT.1.1|9=85|35=X|9997=1319|52=20111023-15:54:58|34=161|9998=374498|56=BRKR|49=INVMGR|9999=912776|10=101|8=FIXT.1.1|9=85|35=X|9997=1319|52=20111023-15:54:58|34=162|9998=374498|56=BRKR|49=INVMGR|9999=912822|10=101|8=FIXT.1.1|9=85|35=X|9997=1319|52=20111023-15:54:58|34=163|9998=374498|56=BRKR|49=INVMGR|9999=912876|10=101|8=FIXT.1.1|9=85|35=X|9997=1319|52=20111023-15:54:58|34=164|9998=374498|56=BRKR|49=INVMGR|9999=912943|10=101|8=FIXT.1.1|9=85|35=X|9997=1319|52=20111023-15:54:58|34=165|9998=374498|56=BRKR|49=INVMGR|9999=912996|10=101|8=FIXT.1.1|9=85|35=X|9997=1319|52=20111023-15:54:58|34=166|9998=374498|56=BRKR|49=INVMGR|9999=913038|10=101|8=FIXT.1.1|9=85|35=X|9997=1319|52=20111023-15:54:58|34=167|9998=374498|56=BRKR|49=INVMGR|9999=913085|10=101|8=FIXT.1.1|9=85|35=X|9997=1319|52=20111023-15:54:58|34=168|9998=374498|56=BRKR|49=INVMGR|9999=913125|10=101|8=FIXT.1.1|9=85|35=X|9997=1319|52=20111023-15:54:58|34=169|9998=374498|56=BRKR|49=INVMGR|9999=913172|10=101|8=FIXT.1.1|9=85|35=X|9997=1319|52=20111023-15:54:58|34=170|9998=374498|56=BRKR|49=INVMGR|9999=913227|10=101|8=FIXT.1.1|9=85|35=X|9997=1319|52=20111023-15:54:58|34=171|9998=374498|56=BRKR|49=INVMGR|9999=913279|10=101|8=FIXT.1.1|9=85|35=X|9997=1319|52=20111023-15:54:58|34=172|9998=374498|56=BRKR|49=INVMGR|9999=913321|10=101|8=FIXT.1.1|9=85|35=X|9997=1319|52=20111023-15:54:58|34=173|9998=374498|56=BRKR|49=INVMGR|9999=913366|10=101|8=FIXT.1.1|9=85|35=X|9997=1319|52=20111023-15:54:58|34=174|9998=374498|56=BRKR|49=INVMGR|9999=913406|10=101|8=FIXT.1.1|9=85|35=X|9997=1319|52=20111023-15:54:58|34=175|9998=374498|56=BRKR|49=INVMGR|9999=913450|10=101|8=FIXT.1.1|9=85|35=X|9997=1319|52=20111023-15:54:58|34=176|9998=374498|56=BRKR|49=INVMGR|9999=913494|10=101|8=FIXT.1.1|9=85|35=X|9997=1319|52=20111023-15:54:58|34=177|9998=374498|56=BRKR|49=INVMGR|9999=913551|10=101|8=FIXT.1.1|9=85|35=X|9997=1319|52=20111023-15:54:58|34=178|9998=374498|56=BRKR|49=INVMGR|9999=913595|10=101|8=FIXT.1.1|9=85|35=X|9997=1319|52=20111023-15:54:58|34=179|9998=374498|56=BRKR|49=INVMGR|9999=913645|10=101|8=FIXT.1.1|9=85|35=X|9997=1319|52=20111023-15:54:58|34=180|9998=374498|56=BRKR|49=INVMGR|9999=913686|10=101|8=FIXT.1.1|9=85|35=X|9997=1319|52=20111023-15:54:58|34=181|9998=374498|56=BRKR|49=INVMGR|9999=913734|10=101|8=FIXT.1.1|9=85|35=X|9997=1319|52=20111023-15:54:58|34=182|9998=374498|56=BRKR|49=INVMGR|9999=913775|10=101|8=FIXT.1.1|9=85|35=X|9997=1319|52=20111023-15:54:58|34=183|9998=374498|56=BRKR|49=INVMGR|9999=913821|10=101|8=FIXT.1.1|9=85|35=X|9997=1319|52=20111023-15:54:58|34=184|9998=374498|56=BRKR|49=INVMGR|9999=913862|10=101|8=FIXT.1.1|9=85|35=X|9997=1319|52=20111023-15:54:58|34=185|9998=374498|56=BRKR|49=INVMGR|9999=913906|10=101|8=FIXT.1.1|9=85|35=X|9997=1319|52=20111023-15:54:58|34=186|9998=374498|56=BRKR|49=INVMGR|9999=913947|10=101|8=FIXT.1.1|9=85|35=X|9997=1319|52=20111023-15:54:58|34=187|9998=374498|56=BRKR|49=INVMGR|9999=914003|10=101|8=FIXT.1.1|9=85|35=X|9997=1319|52=20111023-15:54:58|34=188|9998=374498|56=BRKR|49=INVMGR|9999=914045|10=101|8=FIXT.1.1|9=85|35=X|9997=1319|52=20111023-15:54:58|34=189|9998=374498|56=BRKR|49=INVMGR|9999=914088|10=101|8=FIXT.1.1|9=85|35=X|9997=1319|52=20111023-15:54:58|34=190|9998=374498|56=BRKR|49=INVMGR|9999=914128|10=101|8=FIXT.1.1|9=85|35=X|9997=1319|52=20111023-15:54:58|34=191|9998=374498|56=BRKR|49=INVMGR|9999=914171|10=101|8=FIXT.1.1|9=85|35=X|9997=1319|52=20111023-15:54:58|34=192|9998=374498|56=BRKR|49=INVMGR|9999=918033|10=101|8=FIXT.1.1|9=85|35=X|9997=1319|52=20111023-15:54:58|34=193|9998=374498|56=BRKR|49=INVMGR|9999=918097|10=101|8=FIXT.1.1|9=85|35=X|9997=1319|52=20111023-15:54:58|34=194|9998=374498|56=BRKR|49=INVMGR|9999=918141|10=101|8=FIXT.1.1|9=85|35=X|9997=1319|52=20111023-15:54:58|34=195|9998=374498|56=BRKR|49=INVMGR|9999=918187|10=101|8=FIXT.1.1|9=85|35=X|9997=1319|52=20111023-15:54:58|34=196|9998=374498|56=BRKR|49=INVMGR|9999=918235|10=101|8=FIXT.1.1|9=85|35=X|9997=1319|52=20111023-15:54:58|34=197|9998=374498|56=BRKR|49=INVMGR|9999=918281|10=101|8=FIXT.1.1|9=85|35=X|9997=1319|52=20111023-15:54:58|34=198|9998=374498|56=BRKR|49=INVMGR|9999=918323|10=101|8=FIXT.1.1|9=85|35=X|9997=1319|52=20111023-15:54:58|34=199|9998=374498|56=BRKR|49=INVMGR|9999=918368|10=101|8=FIXT.1.1|9=85|35=X|9997=1319|52=20111023-15:54:58|34=200|9998=374498|56=BRKR|49=INVMGR|9999=918411|10=101|8=FIXT.1.1|9=85|35=X|9997=1319|52=20111023-15:54:58|34=201|9998=374498|56=BRKR|49=INVMGR|9999=918456|10=101|8=FIXT.1.1|9=85|35=X|9997=1319|52=20111023-15:54:58|34=202|9998=374498|56=BRKR|49=INVMGR|9999=918497|10=101|8=FIXT.1.1|9=85|35=X|9997=1319|52=20111023-15:54:58|34=203|9998=374498|56=BRKR|49=INVMGR|9999=918542|10=101|8=FIXT.1.1|9=85|35=X|9997=1319|52=20111023-15:54:58|34=204|9998=374498|56=BRKR|49=INVMGR|9999=918588|10=101|8=FIXT.1.1|9=85|35=X|9997=1319|52=20111023-15:54:58|34=205|9998=374498|56=BRKR|49=INVMGR|9999=918632|10=101|8=FIXT.1.1|9=85|35=X|9997=1319|52=20111023-15:54:58|34=206|9998=374498|56=BRKR|49=INVMGR|9999=918673|10=101|8=FIXT.1.1|9=85|35=X|9997=1319|52=20111023-15:54:58|34=207|9998=374498|56=BRKR|49=INVMGR|9999=918717|10=101|8=FIXT.1.1|9=85|35=X|9997=1319|52=20111023-15:54:58|34=208|9998=374498|56=BRKR|49=INVMGR|9999=918758|10=101|8=FIXT.1.1|9=85|35=X|9997=1319|52=20111023-15:54:58|34=209|9998=374498|56=BRKR|49=INVMGR|9999=918803|10=101|8=FIXT.1.1|9=85|35=X|9997=1319|52=20111023-15:54:58|34=210|9998=374498|56=BRKR|49=INVMGR|9999=918845|10=101|8=FIXT.1.1|9=85|35=X|9997=1319|52=20111023-15:54:58|34=211|9998=374498|56=BRKR|49=INVMGR|9999=918890|10=101|8=FIXT.1.1|9=85|35=X|9997=1319|52=20111023-15:54:58|34=212|9998=374498|56=BRKR|49=INVMGR|9999=918936|10=101|8=FIXT.1.1|9=85|35=X|9997=1319|52=20111023-15:54:58|34=213|9998=374498|56=BRKR|49=INVMGR|9999=918985|10=101|8=FIXT.1.1|9=85|35=X|9997=1319|52=20111023-15:54:58|34=214|9998=374498|56=BRKR|49=INVMGR|9999=919012|10=101|8=FIXT.1.1|9=85|35=X|9997=1319|52=20111023-15:54:58|34=215|9998=374498|56=BRKR|49=INVMGR|9999=919045|10=101|8=FIXT.1.1|9=85|35=X|9997=1319|52=20111023-15:54:58|34=216|9998=374498|56=BRKR|49=INVMGR|9999=919088|10=101|8=FIXT.1.1|9=85|35=X|9997=1319|52=20111023-15:54:58|34=217|9998=374498|56=BRKR|49=INVMGR|9999=919117|10=101|8=FIXT.1.1|9=85|35=X|9997=1319|52=20111023-15:54:58|34=218|9998=374498|56=BRKR|49=INVMGR|9999=919156|10=101|8=FIXT.1.1|9=85|35=X|9997=1319|52=20111023-15:54:58|34=219|9998=374498|56=BRKR|49=INVMGR|9999=919202|10=101|8=FIXT.1.1|9=85|35=X|9997=1319|52=20111023-15:54:58|34=220|9998=374498|56=BRKR|49=INVMGR|9999=919249|10=101|8=FIXT.1.1|9=85|35=X|9997=1319|52=20111023-15:54:58|34=221|9998=374498|56=BRKR|49=INVMGR|9999=919294|10=101|8=FIXT.1.1|9=85|35=X|9997=1319|52=20111023-15:54:58|34=222|9998=374498|56=BRKR|49=INVMGR|9999=919333|10=101|8=FIXT.1.1|9=85|35=X|9997=1319|52=20111023-15:54:58|34=223|9998=374498|56=BRKR|49=INVMGR|9999=919377|10=101|8=FIXT.1.1|9=85|35=X|9997=1319|52=20111023-15:54:58|34=224|9998=374498|56=BRKR|49=INVMGR|9999=919419|10=101|8=FIXT.1.1|9=85|35=X|9997=1319|52=20111023-15:54:58|34=225|9998=374498|56=BRKR|49=INVMGR|9999=919466|10=101|8=FIXT.1.1|9=85|35=X|9997=1319|52=20111023-15:54:58|34=226|9998=374498|56=BRKR|49=INVMGR|9999=919507|10=101|8=FIXT.1.1|9=85|35=X|9997=1319|52=20111023-15:54:58|34=227|9998=374498|56=BRKR|49=INVMGR|9999=919551|10=101|8=FIXT.1.1|9=85|35=X|9997=1319|52=20111023-15:54:58|34=228|9998=374498|56=BRKR|49=INVMGR|9999=919594|10=101|8=FIXT.1.1|9=85|35=X|9997=1319|52=20111023-15:54:58|34=229|9998=374498|56=BRKR|49=INVMGR|9999=919645|10=101|8=FIXT.1.1|9=85|35=X|9997=1319|52=20111023-15:54:58|34=230|9998=374498|56=BRKR|49=INVMGR|9999=919688|10=101|8=FIXT.1.1|9=85|35=X|9997=1319|52=20111023-15:54:58|34=231|9998=374498|56=BRKR|49=INVMGR|9999=919720|10=101|8=FIXT.1.1|9=85|35=X|9997=1319|52=20111023-15:54:58|34=232|9998=374498|56=BRKR|49=INVMGR|9999=919745|10=101|8=FIXT.1.1|9=85|35=X|9997=1319|52=20111023-15:54:58|34=233|9998=374498|56=BRKR|49=INVMGR|9999=919773|10=101|8=FIXT.1.1|9=85|35=X|9997=1319|52=20111023-15:54:58|34=234|9998=374498|56=BRKR|49=INVMGR|9999=919799|10=101|8=FIXT.1.1|9=85|35=X|9997=1319|52=20111023-15:54:58|34=235|9998=374498|56=BRKR|49=INVMGR|9999=919826|10=101|8=FIXT.1.1|9=85|35=X|9997=1319|52=20111023-15:54:58|34=236|9998=374498|56=BRKR|49=INVMGR|9999=919851|10=101|8=FIXT.1.1|9=85|35=X|9997=1319|52=20111023-15:54:58|34=237|9998=374498|56=BRKR|49=INVMGR|9999=919882|10=101|8=FIXT.1.1|9=85|35=X|9997=1319|52=20111023-15:54:58|34=238|9998=374498|56=BRKR|49=INVMGR|9999=919907|10=101|8=FIXT.1.1|9=85|35=X|9997=1319|52=20111023-15:54:58|34=239|9998=374498|56=BRKR|49=INVMGR|9999=919934|10=101|8=FIXT.1.1|9=85|35=X|9997=1319|52=20111023-15:54:58|34=240|9998=374498|56=BRKR|49=INVMGR|9999=919959|10=101|8=FIXT.1.1|9=85|35=X|9997=1319|52=20111023-15:54:58|34=241|9998=374498|56=BRKR|49=INVMGR|9999=919998|10=101|8=FIXT.1.1|9=85|35=X|9997=1319|52=20111023-15:54:58|34=242|9998=374498|56=BRKR|49=INVMGR|9999=920024|10=101|8=FIXT.1.1|9=85|35=X|9997=1319|52=20111023-15:54:58|34=243|9998=374498|56=BRKR|49=INVMGR|9999=920051|10=101|8=FIXT.1.1|9=85|35=X|9997=1319|52=20111023-15:54:58|34=244|9998=374498|56=BRKR|49=INVMGR|9999=920076|10=101|8=FIXT.1.1|9=85|35=X|9997=1319|52=20111023-15:54:58|34=245|9998=374498|56=BRKR|49=INVMGR|9999=920106|10=101|8=FIXT.1.1|9=85|35=X|9997=1319|52=20111023-15:54:58|34=246|9998=374498|56=BRKR|49=INVMGR|9999=920132|10=101|8=FIXT.1.1|9=85|35=X|9997=1319|52=20111023-15:54:58|34=247|9998=374498|56=BRKR|49=INVMGR|9999=920159|10=101|8=FIXT.1.1|9=85|35=X|9997=1319|52=20111023-15:54:58|34=248|9998=374498|56=BRKR|49=INVMGR|9999=920184|10=101|8=FIXT.1.1|9=85|35=X|9997=1319|52=20111023-15:54:58|34=249|9998=374498|56=BRKR|49=INVMGR|9999=920211|10=101|8=FIXT.1.1|9=85|35=X|9997=1319|52=20111023-15:54:58|34=250|9998=374498|56=BRKR|49=INVMGR|9999=920236|10=101|8=FIXT.1.1|9=85|35=X|9997=1319|52=20111023-15:54:58|34=251|9998=374498|56=BRKR|49=INVMGR|9999=920263|10=101|8=FIXT.1.1|9=85|35=X|9997=1319|52=20111023-15:54:58|34=252|9998=374498|56=BRKR|49=INVMGR|9999=920288|10=101|8=FIXT.1.1|9=85|35=X|9997=1319|52=20111023-15:54:58|34=253|9998=374498|56=BRKR|49=INVMGR|9999=920325|10=101|8=FIXT.1.1|9=85|35=X|9997=1319|52=20111023-15:54:58|34=254|9998=374498|56=BRKR|49=INVMGR|9999=920360|10=101|8=FIXT.1.1|9=85|35=X|9997=1319|52=20111023-15:54:58|34=255|9998=374498|56=BRKR|49=INVMGR|9999=920404|10=101|8=FIXT.1.1|9=85|35=X|9997=1319|52=20111023-15:54:58|34=256|9998=374498|56=BRKR|49=INVMGR|9999=920447|10=101|8=FIXT.1.1|9=85|35=X|9997=1319|52=20111023-15:54:58|34=257|9998=374498|56=BRKR|49=INVMGR|9999=920492|10=101|8=FIXT.1.1|9=85|35=X|9997=1319|52=20111023-15:54:58|34=258|9998=374498|56=BRKR|49=INVMGR|9999=920535|10=101|8=FIXT.1.1|9=85|35=X|9997=1319|52=20111023-15:54:58|34=259|9998=374498|56=BRKR|49=INVMGR|9999=920580|10=101|8=FIXT.1.1|9=85|35=X|9997=1319|52=20111023-15:54:58|34=260|9998=374498|56=BRKR|49=INVMGR|9999=920623|10=101|8=FIXT.1.1|9=85|35=X|9997=1319|52=20111023-15:54:58|34=261|9998=374498|56=BRKR|49=INVMGR|9999=920669|10=101|8=FIXT.1.1|9=85|35=X|9997=1319|52=20111023-15:54:58|34=262|9998=374498|56=BRKR|49=INVMGR|9999=920712|10=101|8=FIXT.1.1|9=85|35=X|9997=1319|52=20111023-15:54:58|34=263|9998=374498|56=BRKR|49=INVMGR|9999=920740|10=101|8=FIXT.1.1|9=85|35=X|9997=1319|52=20111023-15:54:58|34=264|9998=374498|56=BRKR|49=INVMGR|9999=920777|10=101|8=FIXT.1.1|9=85|35=X|9997=1319|52=20111023-15:54:58|34=265|9998=374498|56=BRKR|49=INVMGR|9999=920816|10=101|8=FIXT.1.1|9=85|35=X|9997=1319|52=20111023-15:54:58|34=266|9998=374498|56=BRKR|49=INVMGR|9999=920842|10=101|8=FIXT.1.1|9=85|35=X|9997=1319|52=20111023-15:54:58|34=267|9998=374498|56=BRKR|49=INVMGR|9999=920880|10=101|8=FIXT.1.1|9=85|35=X|9997=1319|52=20111023-15:54:58|34=268|9998=374498|56=BRKR|49=INVMGR|9999=920922|10=101|8=FIXT.1.1|9=85|35=X|9997=1319|52=20111023-15:54:58|34=269|9998=374498|56=BRKR|49=INVMGR|9999=920973|10=101|8=FIXT.1.1|9=85|35=X|9997=1319|52=20111023-15:54:58|34=270|9998=374498|56=BRKR|49=INVMGR|9999=921022|10=101|8=FIXT.1.1|9=85|35=X|9997=1319|52=20111023-15:54:58|34=271|9998=374498|56=BRKR|49=INVMGR|9999=921066|10=101|8=FIXT.1.1|9=85|35=X|9997=1319|52=20111023-15:54:58|34=272|9998=374498|56=BRKR|49=INVMGR|9999=921108|10=101|8=FIXT.1.1|9=85|35=X|9997=1319|52=20111023-15:54:58|34=273|9998=374498|56=BRKR|49=INVMGR|9999=921151|10=101|8=FIXT.1.1|9=85|35=X|9997=1319|52=20111023-15:54:58|34=274|9998=374498|56=BRKR|49=INVMGR|9999=921196|10=101|8=FIXT.1.1|9=85|35=X|9997=1319|52=20111023-15:54:58|34=275|9998=374498|56=BRKR|49=INVMGR|9999=921234|10=101|8=FIXT.1.1|9=85|35=X|9997=1319|52=20111023-15:54:58|34=276|9998=374498|56=BRKR|49=INVMGR|9999=921267|10=101|8=FIXT.1.1|9=85|35=X|9997=1319|52=20111023-15:54:58|34=277|9998=374498|56=BRKR|49=INVMGR|9999=921310|10=101|8=FIXT.1.1|9=85|35=X|9997=1319|52=20111023-15:54:58|34=278|9998=374498|56=BRKR|49=INVMGR|9999=921340|10=101|8=FIXT.1.1|9=85|35=X|9997=1319|52=20111023-15:54:58|34=279|9998=374498|56=BRKR|49=INVMGR|9999=921372|10=101|8=FIXT.1.1|9=85|35=X|9997=1319|52=20111023-15:54:58|34=280|9998=374498|56=BRKR|49=INVMGR|9999=921415|10=101|8=FIXT.1.1|9=85|35=X|9997=1319|52=20111023-15:54:58|34=281|9998=374498|56=BRKR|49=INVMGR|9999=921444|10=101|8=FIXT.1.1|9=85|35=X|9997=1319|52=20111023-15:54:58|34=282|9998=374498|56=BRKR|49=INVMGR|9999=921472|10=101|8=FIXT.1.1|9=85|35=X|9997=1319|52=20111023-15:54:58|34=283|9998=374498|56=BRKR|49=INVMGR|9999=921518|10=101|8=FIXT.1.1|9=85|35=X|9997=1319|52=20111023-15:54:58|34=284|9998=374498|56=BRKR|49=INVMGR|9999=921559|10=101|8=FIXT.1.1|9=85|35=X|9997=1319|52=20111023-15:54:58|34=285|9998=374498|56=BRKR|49=INVMGR|9999=921604|10=101|8=FIXT.1.1|9=85|35=X|9997=1319|52=20111023-15:54:58|34=286|9998=374498|56=BRKR|49=INVMGR|9999=921645|10=101|8=FIXT.1.1|9=85|35=X|9997=1319|52=20111023-15:54:58|34=287|9998=374498|56=BRKR|49=INVMGR|9999=921694|10=101|8=FIXT.1.1|9=85|35=X|9997=1319|52=20111023-15:54:58|34=288|9998=374498|56=BRKR|49=INVMGR|9999=921735|10=101|8=FIXT.1.1|9=85|35=X|9997=1319|52=20111023-15:54:58|34=289|9998=374498|56=BRKR|49=INVMGR|9999=921779|10=101|8=FIXT.1.1|9=85|35=X|9997=1319|52=20111023-15:54:58|34=290|9998=374498|56=BRKR|49=INVMGR|9999=921822|10=101|8=FIXT.1.1|9=85|35=X|9997=1319|52=20111023-15:54:58|34=291|9998=374498|56=BRKR|49=INVMGR|9999=921868|10=101|8=FIXT.1.1|9=85|35=X|9997=1319|52=20111023-15:54:58|34=292|9998=374498|56=BRKR|49=INVMGR|9999=921902|10=101|8=FIXT.1.1|9=85|35=X|9997=1319|52=20111023-15:54:58|34=293|9998=374498|56=BRKR|49=INVMGR|9999=921930|10=101|8=FIXT.1.1|9=85|35=X|9997=1319|52=20111023-15:54:58|34=294|9998=374498|56=BRKR|49=INVMGR|9999=921958|10=101|8=FIXT.1.1|9=85|35=X|9997=1319|52=20111023-15:54:58|34=295|9998=374498|56=BRKR|49=INVMGR|9999=922003|10=101|8=FIXT.1.1|9=85|35=X|9997=1319|52=20111023-15:54:58|34=296|9998=374498|56=BRKR|49=INVMGR|9999=922029|10=101|8=FIXT.1.1|9=85|35=X|9997=1319|52=20111023-15:54:58|34=297|9998=374498|56=BRKR|49=INVMGR|9999=922056|10=101|8=FIXT.1.1|9=85|35=X|9997=1319|52=20111023-15:54:58|34=298|9998=374498|56=BRKR|49=INVMGR|9999=922082|10=101|8=FIXT.1.1|9=85|35=X|9997=1319|52=20111023-15:54:58|34=299|9998=374498|56=BRKR|49=INVMGR|9999=922110|10=101|8=FIXT.1.1|9=85|35=X|9997=1319|52=20111023-15:54:58|34=300|9998=374498|56=BRKR|49=INVMGR|9999=922136|10=101|8=FIXT.1.1|9=85|35=X|9997=1319|52=20111023-15:54:58|34=301|9998=374498|56=BRKR|49=INVMGR|9999=922163|10=101|8=FIXT.1.1|9=85|35=X|9997=1319|52=20111023-15:54:58|34=302|9998=374498|56=BRKR|49=INVMGR|9999=922188|10=101|8=FIXT.1.1|9=85|35=X|9997=1319|52=20111023-15:54:58|34=303|9998=374498|56=BRKR|49=INVMGR|9999=922218|10=101|8=FIXT.1.1|9=85|35=X|9997=1319|52=20111023-15:54:58|34=304|9998=374498|56=BRKR|49=INVMGR|9999=922243|10=101|8=FIXT.1.1|9=85|35=X|9997=1319|52=20111023-15:54:58|34=305|9998=374498|56=BRKR|49=INVMGR|9999=922270|10=101|8=FIXT.1.1|9=85|35=X|9997=1319|52=20111023-15:54:58|34=306|9998=374498|56=BRKR|49=INVMGR|9999=922296|10=101|8=FIXT.1.1|9=85|35=X|9997=1319|52=20111023-15:54:58|34=307|9998=374498|56=BRKR|49=INVMGR|9999=922324|10=101|8=FIXT.1.1|9=85|35=X|9997=1319|52=20111023-15:54:58|34=308|9998=374498|56=BRKR|49=INVMGR|9999=922350|10=101|8=FIXT.1.1|9=85|35=X|9997=1319|52=20111023-15:54:58|34=309|9998=374498|56=BRKR|49=INVMGR|9999=922376|10=101|8=FIXT.1.1|9=85|35=X|9997=1319|52=20111023-15:54:58|34=310|9998=374498|56=BRKR|49=INVMGR|9999=922402|10=101|8=FIXT.1.1|9=85|35=X|9997=1319|52=20111023-15:54:58|34=311|9998=374498|56=BRKR|49=INVMGR|9999=922429|10=101|8=FIXT.1.1|9=85|35=X|9997=1319|52=20111023-15:54:58|34=312|9998=374498|56=BRKR|49=INVMGR|9999=922457|10=101|8=FIXT.1.1|9=85|35=X|9997=1319|52=20111023-15:54:58|34=313|9998=374498|56=BRKR|49=INVMGR|9999=922484|10=101|8=FIXT.1.1|9=85|35=X|9997=1319|52=20111023-15:54:58|34=314|9998=374498|56=BRKR|49=INVMGR|9999=922509|10=101|8=FIXT.1.1|9=85|35=X|9997=1319|52=20111023-15:54:58|34=315|9998=374498|56=BRKR|49=INVMGR|9999=922536|10=101|8=FIXT.1.1|9=85|35=X|9997=1319|52=20111023-15:54:58|34=316|9998=374498|56=BRKR|49=INVMGR|9999=922562|10=101|8=FIXT.1.1|9=85|35=X|9997=1319|52=20111023-15:54:58|34=317|9998=374498|56=BRKR|49=INVMGR|9999=922589|10=101|8=FIXT.1.1|9=85|35=X|9997=1319|52=20111023-15:54:58|34=318|9998=374498|56=BRKR|49=INVMGR|9999=922614|10=101|8=FIXT.1.1|9=85|35=X|9997=1319|52=20111023-15:54:58|34=319|9998=374498|56=BRKR|49=INVMGR|9999=922641|10=101|8=FIXT.1.1|9=85|35=X|9997=1319|52=20111023-15:54:58|34=320|9998=374498|56=BRKR|49=INVMGR|9999=922669|10=101|8=FIXT.1.1|9=85|35=X|9997=1319|52=20111023-15:54:58|34=321|9998=374498|56=BRKR|49=INVMGR|9999=922696|10=101|8=FIXT.1.1|9=85|35=X|9997=1319|52=20111023-15:54:58|34=322|9998=374498|56=BRKR|49=INVMGR|9999=922722|10=101|8=FIXT.1.1|9=85|35=X|9997=1319|52=20111023-15:54:58|34=323|9998=374498|56=BRKR|49=INVMGR|9999=922749|10=101|8=FIXT.1.1|9=85|35=X|9997=1319|52=20111023-15:54:58|34=324|9998=374498|56=BRKR|49=INVMGR|9999=922775|10=101|8=FIXT.1.1|9=85|35=X|9997=1319|52=20111023-15:54:58|34=325|9998=374498|56=BRKR|49=INVMGR|9999=922801|10=101|8=FIXT.1.1|9=85|35=X|9997=1319|52=20111023-15:54:58|34=326|9998=374498|56=BRKR|49=INVMGR|9999=922827|10=101|8=FIXT.1.1|9=85|35=X|9997=1319|52=20111023-15:54:58|34=327|9998=374498|56=BRKR|49=INVMGR|9999=922854|10=101|8=FIXT.1.1|9=85|35=X|9997=1319|52=20111023-15:54:58|34=328|9998=374498|56=BRKR|49=INVMGR|9999=922881|10=101|8=FIXT.1.1|9=85|35=X|9997=1319|52=20111023-15:54:58|34=329|9998=374498|56=BRKR|49=INVMGR|9999=922908|10=101|8=FIXT.1.1|9=85|35=X|9997=1319|52=20111023-15:54:58|34=330|9998=374498|56=BRKR|49=INVMGR|9999=922934|10=101|8=FIXT.1.1|9=85|35=X|9997=1319|52=20111023-15:54:58|34=331|9998=374498|56=BRKR|49=INVMGR|9999=922961|10=101|8=FIXT.1.1|9=85|35=X|9997=1319|52=20111023-15:54:58|34=332|9998=374498|56=BRKR|49=INVMGR|9999=922993|10=101|8=FIXT.1.1|9=85|35=X|9997=1319|52=20111023-15:54:58|34=333|9998=374498|56=BRKR|49=INVMGR|9999=923021|10=101|8=FIXT.1.1|9=85|35=X|9997=1319|52=20111023-15:54:58|34=334|9998=374498|56=BRKR|49=INVMGR|9999=923046|10=101|8=FIXT.1.1|9=85|35=X|9997=1319|52=20111023-15:54:58|34=335|9998=374498|56=BRKR|49=INVMGR|9999=923073|10=101|8=FIXT.1.1|9=85|35=X|9997=1319|52=20111023-15:54:58|34=336|9998=374498|56=BRKR|49=INVMGR|9999=923100|10=101|8=FIXT.1.1|9=85|35=X|9997=1319|52=20111023-15:54:58|34=337|9998=374498|56=BRKR|49=INVMGR|9999=923128|10=101|8=FIXT.1.1|9=85|35=X|9997=1319|52=20111023-15:54:58|34=338|9998=374498|56=BRKR|49=INVMGR|9999=923153|10=101|8=FIXT.1.1|9=85|35=X|9997=1319|52=20111023-15:54:58|34=339|9998=374498|56=BRKR|49=INVMGR|9999=923180|10=101|8=FIXT.1.1|9=85|35=X|9997=1319|52=20111023-15:54:58|34=340|9998=374498|56=BRKR|49=INVMGR|9999=923205|10=101|8=FIXT.1.1|9=85|35=X|9997=1319|52=20111023-15:54:58|34=341|9998=374498|56=BRKR|49=INVMGR|9999=923233|10=101|8=FIXT.1.1|9=85|35=X|9997=1319|52=20111023-15:54:58|34=342|9998=374498|56=BRKR|49=INVMGR|9999=923258|10=101|8=FIXT.1.1|9=85|35=X|9997=1319|52=20111023-15:54:58|34=343|9998=374498|56=BRKR|49=INVMGR|9999=923285|10=101|8=FIXT.1.1|9=85|35=X|9997=1319|52=20111023-15:54:58|34=344|9998=374498|56=BRKR|49=INVMGR|9999=923311|10=101|8=FIXT.1.1|9=85|35=X|9997=1319|52=20111023-15:54:58|34=345|9998=374498|56=BRKR|49=INVMGR|9999=923370|10=101|8=FIXT.1.1|9=85|35=X|9997=1319|52=20111023-15:54:58|34=346|9998=374498|56=BRKR|49=INVMGR|9999=923404|10=101|8=FIXT.1.1|9=85|35=X|9997=1319|52=20111023-15:54:58|34=347|9998=374498|56=BRKR|49=INVMGR|9999=923447|10=101|8=FIXT.1.1|9=85|35=X|9997=1319|52=20111023-15:54:58|34=348|9998=374498|56=BRKR|49=INVMGR|9999=923488|10=101|8=FIXT.1.1|9=85|35=X|9997=1319|52=20111023-15:54:58|34=349|9998=374498|56=BRKR|49=INVMGR|9999=923533|10=101|8=FIXT.1.1|9=85|35=X|9997=1319|52=20111023-15:54:58|34=350|9998=374498|56=BRKR|49=INVMGR|9999=923574|10=101|8=FIXT.1.1|9=85|35=X|9997=1319|52=20111023-15:54:58|34=351|9998=374498|56=BRKR|49=INVMGR|9999=923618|10=101|8=FIXT.1.1|9=85|35=X|9997=1319|52=20111023-15:54:58|34=352|9998=374498|56=BRKR|49=INVMGR|9999=923659|10=101|8=FIXT.1.1|9=85|35=X|9997=1319|52=20111023-15:54:58|34=353|9998=374498|56=BRKR|49=INVMGR|9999=923709|10=101|8=FIXT.1.1|9=85|35=X|9997=1319|52=20111023-15:54:58|34=354|9998=374498|56=BRKR|49=INVMGR|9999=923750|10=101|8=FIXT.1.1|9=85|35=X|9997=1319|52=20111023-15:54:58|34=355|9998=374498|56=BRKR|49=INVMGR|9999=923793|10=101|8=FIXT.1.1|9=85|35=X|9997=1319|52=20111023-15:54:58|34=356|9998=374498|56=BRKR|49=INVMGR|9999=923834|10=101|8=FIXT.1.1|9=85|35=X|9997=1319|52=20111023-15:54:58|34=357|9998=374498|56=BRKR|49=INVMGR|9999=923879|10=101|8=FIXT.1.1|9=85|35=X|9997=1319|52=20111023-15:54:58|34=358|9998=374498|56=BRKR|49=INVMGR|9999=923920|10=101|8=FIXT.1.1|9=85|35=X|9997=1319|52=20111023-15:54:58|34=359|9998=374498|56=BRKR|49=INVMGR|9999=923969|10=101|8=FIXT.1.1|9=85|35=X|9997=1319|52=20111023-15:54:58|34=360|9998=374498|56=BRKR|49=INVMGR|9999=924010|10=101|8=FIXT.1.1|9=85|35=X|9997=1319|52=20111023-15:54:58|34=361|9998=374498|56=BRKR|49=INVMGR|9999=924060|10=101|8=FIXT.1.1|9=85|35=X|9997=1319|52=20111023-15:54:58|34=362|9998=374498|56=BRKR|49=INVMGR|9999=924101|10=101|8=FIXT.1.1|9=85|35=X|9997=1319|52=20111023-15:54:58|34=363|9998=374498|56=BRKR|49=INVMGR|9999=924146|10=101|8=FIXT.1.1|9=85|35=X|9997=1319|52=20111023-15:54:58|34=364|9998=374498|56=BRKR|49=INVMGR|9999=924186|10=101|8=FIXT.1.1|9=85|35=X|9997=1319|52=20111023-15:54:58|34=365|9998=374498|56=BRKR|49=INVMGR|9999=924231|10=101|8=FIXT.1.1|9=85|35=X|9997=1319|52=20111023-15:54:58|34=366|9998=374498|56=BRKR|49=INVMGR|9999=925410|10=101|8=FIXT.1.1|9=85|35=X|9997=1319|52=20111023-15:54:58|34=367|9998=374498|56=BRKR|49=INVMGR|9999=925474|10=101|8=FIXT.1.1|9=85|35=X|9997=1319|52=20111023-15:54:58|34=368|9998=374498|56=BRKR|49=INVMGR|9999=925519|10=101|8=FIXT.1.1|9=85|35=X|9997=1319|52=20111023-15:54:58|34=369|9998=374498|56=BRKR|49=INVMGR|9999=925564|10=101|8=FIXT.1.1|9=85|35=X|9997=1319|52=20111023-15:54:58|34=370|9998=374498|56=BRKR|49=INVMGR|9999=925610|10=101|8=FIXT.1.1|9=85|35=X|9997=1319|52=20111023-15:54:58|34=371|9998=374498|56=BRKR|49=INVMGR|9999=925656|10=101|8=FIXT.1.1|9=85|35=X|9997=1319|52=20111023-15:54:58|34=372|9998=374498|56=BRKR|49=INVMGR|9999=925697|10=101|8=FIXT.1.1|9=85|35=X|9997=1319|52=20111023-15:54:58|34=373|9998=374498|56=BRKR|49=INVMGR|9999=925743|10=101|8=FIXT.1.1|9=85|35=X|9997=1319|52=20111023-15:54:58|34=374|9998=374498|56=BRKR|49=INVMGR|9999=925785|10=101|8=FIXT.1.1|9=85|35=X|9997=1319|52=20111023-15:54:58|34=375|9998=374498|56=BRKR|49=INVMGR|9999=925828|10=101|8=FIXT.1.1|9=85|35=X|9997=1319|52=20111023-15:54:58|34=376|9998=374498|56=BRKR|49=INVMGR|9999=925869|10=101|8=FIXT.1.1|9=85|35=X|9997=1319|52=20111023-15:54:58|34=377|9998=374498|56=BRKR|49=INVMGR|9999=925914|10=101|8=FIXT.1.1|9=85|35=X|9997=1319|52=20111023-15:54:58|34=378|9998=374498|56=BRKR|49=INVMGR|9999=925960|10=101|8=FIXT.1.1|9=85|35=X|9997=1319|52=20111023-15:54:58|34=379|9998=374498|56=BRKR|49=INVMGR|9999=926010|10=101|8=FIXT.1.1|9=85|35=X|9997=1319|52=20111023-15:54:58|34=380|9998=374498|56=BRKR|49=INVMGR|9999=926053|10=101|8=FIXT.1.1|9=85|35=X|9997=1319|52=20111023-15:54:58|34=381|9998=374498|56=BRKR|49=INVMGR|9999=926100|10=101|8=FIXT.1.1|9=85|35=X|9997=1319|52=20111023-15:54:58|34=382|9998=374498|56=BRKR|49=INVMGR|9999=926163|10=101|8=FIXT.1.1|9=85|35=X|9997=1319|52=20111023-15:54:58|34=383|9998=374498|56=BRKR|49=INVMGR|9999=926228|10=101|8=FIXT.1.1|9=85|35=X|9997=1319|52=20111023-15:54:58|34=384|9998=374498|56=BRKR|49=INVMGR|9999=926287|10=101|8=FIXT.1.1|9=85|35=X|9997=1319|52=20111023-15:54:58|34=385|9998=374498|56=BRKR|49=INVMGR|9999=926351|10=101|8=FIXT.1.1|9=85|35=X|9997=1319|52=20111023-15:54:58|34=386|9998=374498|56=BRKR|49=INVMGR|9999=926414|10=101|8=FIXT.1.1|9=85|35=X|9997=1319|52=20111023-15:54:58|34=387|9998=374498|56=BRKR|49=INVMGR|9999=926477|10=101|8=FIXT.1.1|9=85|35=X|9997=1319|52=20111023-15:54:58|34=388|9998=374498|56=BRKR|49=INVMGR|9999=926529|10=101|8=FIXT.1.1|9=85|35=X|9997=1319|52=20111023-15:54:58|34=389|9998=374498|56=BRKR|49=INVMGR|9999=926585|10=101|8=FIXT.1.1|9=85|35=X|9997=1319|52=20111023-15:54:58|34=390|9998=374498|56=BRKR|49=INVMGR|9999=926630|10=101|8=FIXT.1.1|9=85|35=X|9997=1319|52=20111023-15:54:58|34=391|9998=374498|56=BRKR|49=INVMGR|9999=926675|10=101|8=FIXT.1.1|9=85|35=X|9997=1319|52=20111023-15:54:58|34=392|9998=374498|56=BRKR|49=INVMGR|9999=926717|10=101|8=FIXT.1.1|9=85|35=X|9997=1319|52=20111023-15:54:58|34=393|9998=374498|56=BRKR|49=INVMGR|9999=926762|10=101|8=FIXT.1.1|9=85|35=X|9997=1319|52=20111023-15:54:58|34=394|9998=374498|56=BRKR|49=INVMGR|9999=926807|10=101|8=FIXT.1.1|9=85|35=X|9997=1319|52=20111023-15:54:58|34=395|9998=374498|56=BRKR|49=INVMGR|9999=926852|10=101|8=FIXT.1.1|9=85|35=X|9997=1319|52=20111023-15:54:58|34=396|9998=374498|56=BRKR|49=INVMGR|9999=926894|10=101|8=FIXT.1.1|9=85|35=X|9997=1319|52=20111023-15:54:58|34=397|9998=374498|56=BRKR|49=INVMGR|9999=926939|10=101|8=FIXT.1.1|9=85|35=X|9997=1319|52=20111023-15:54:58|34=398|9998=374498|56=BRKR|49=INVMGR|9999=926987|10=101|8=FIXT.1.1|9=85|35=X|9997=1319|52=20111023-15:54:58|34=399|9998=374498|56=BRKR|49=INVMGR|9999=927034|10=101|8=FIXT.1.1|9=85|35=X|9997=1319|52=20111023-15:54:58|34=400|9998=374498|56=BRKR|49=INVMGR|9999=927076|10=101|8=FIXT.1.1|9=85|35=X|9997=1319|52=20111023-15:54:58|34=401|9998=374498|56=BRKR|49=INVMGR|9999=927122|10=101|8=FIXT.1.1|9=85|35=X|9997=1319|52=20111023-15:54:58|34=402|9998=374498|56=BRKR|49=INVMGR|9999=927164|10=101|8=FIXT.1.1|9=85|35=X|9997=1319|52=20111023-15:54:58|34=403|9998=374498|56=BRKR|49=INVMGR|9999=927289|10=101|8=FIXT.1.1|9=85|35=X|9997=1319|52=20111023-15:54:58|34=404|9998=374498|56=BRKR|49=INVMGR|9999=927332|10=101|8=FIXT.1.1|9=85|35=X|9997=1319|52=20111023-15:54:58|34=405|9998=374498|56=BRKR|49=INVMGR|9999=927377|10=101|8=FIXT.1.1|9=85|35=X|9997=1319|52=20111023-15:54:58|34=406|9998=374498|56=BRKR|49=INVMGR|9999=927419|10=101|8=FIXT.1.1|9=85|35=X|9997=1319|52=20111023-15:54:58|34=407|9998=374498|56=BRKR|49=INVMGR|9999=927466|10=101|8=FIXT.1.1|9=85|35=X|9997=1319|52=20111023-15:54:58|34=408|9998=374498|56=BRKR|49=INVMGR|9999=927507|10=101|8=FIXT.1.1|9=85|35=X|9997=1319|52=20111023-15:54:58|34=409|9998=374498|56=BRKR|49=INVMGR|9999=927551|10=101|8=FIXT.1.1|9=85|35=X|9997=1319|52=20111023-15:54:58|34=410|9998=374498|56=BRKR|49=INVMGR|9999=927592|10=101|8=FIXT.1.1|9=85|35=X|9997=1319|52=20111023-15:54:58|34=411|9998=374498|56=BRKR|49=INVMGR|9999=927642|10=101|8=FIXT.1.1|9=85|35=X|9997=1319|52=20111023-15:54:58|34=412|9998=374498|56=BRKR|49=INVMGR|9999=927683|10=101|8=FIXT.1.1|9=85|35=X|9997=1319|52=20111023-15:54:58|34=413|9998=374498|56=BRKR|49=INVMGR|9999=927728|10=101|8=FIXT.1.1|9=85|35=X|9997=1319|52=20111023-15:54:58|34=414|9998=374498|56=BRKR|49=INVMGR|9999=927770|10=101|8=FIXT.1.1|9=85|35=X|9997=1319|52=20111023-15:54:58|34=415|9998=374498|56=BRKR|49=INVMGR|9999=927816|10=101|8=FIXT.1.1|9=85|35=X|9997=1319|52=20111023-15:54:58|34=416|9998=374498|56=BRKR|49=INVMGR|9999=927857|10=101|8=FIXT.1.1|9=85|35=X|9997=1319|52=20111023-15:54:58|34=417|9998=374498|56=BRKR|49=INVMGR|9999=927902|10=101|8=FIXT.1.1|9=85|35=X|9997=1319|52=20111023-15:54:58|34=418|9998=374498|56=BRKR|49=INVMGR|9999=927943|10=101|8=FIXT.1.1|9=85|35=X|9997=1319|52=20111023-15:54:58|34=419|9998=374498|56=BRKR|49=INVMGR|9999=928094|10=101|8=FIXT.1.1|9=85|35=X|9997=1319|52=20111023-15:54:58|34=420|9998=374498|56=BRKR|49=INVMGR|9999=928148|10=101|8=FIXT.1.1|9=85|35=X|9997=1319|52=20111023-15:54:58|34=421|9998=374498|56=BRKR|49=INVMGR|9999=928196|10=101|8=FIXT.1.1|9=85|35=X|9997=1319|52=20111023-15:54:58|34=422|9998=374498|56=BRKR|49=INVMGR|9999=928237|10=101|8=FIXT.1.1|9=85|35=X|9997=1319|52=20111023-15:54:58|34=423|9998=374498|56=BRKR|49=INVMGR|9999=928282|10=101|8=FIXT.1.1|9=85|35=X|9997=1319|52=20111023-15:54:58|34=424|9998=374498|56=BRKR|49=INVMGR|9999=928322|10=101|8=FIXT.1.1|9=85|35=X|9997=1319|52=20111023-15:54:58|34=425|9998=374498|56=BRKR|49=INVMGR|9999=928367|10=101|8=FIXT.1.1|9=85|35=X|9997=1319|52=20111023-15:54:58|34=426|9998=374498|56=BRKR|49=INVMGR|9999=928407|10=101|8=FIXT.1.1|9=85|35=X|9997=1319|52=20111023-15:54:58|34=427|9998=374498|56=BRKR|49=INVMGR|9999=928452|10=101|8=FIXT.1.1|9=85|35=X|9997=1319|52=20111023-15:54:58|34=428|9998=374498|56=BRKR|49=INVMGR|9999=928498|10=101|8=FIXT.1.1|9=85|35=X|9997=1319|52=20111023-15:54:58|34=429|9998=374498|56=BRKR|49=INVMGR|9999=928541|10=101|8=FIXT.1.1|9=85|35=X|9997=1319|52=20111023-15:54:58|34=430|9998=374498|56=BRKR|49=INVMGR|9999=928583|10=101|8=FIXT.1.1|9=85|35=X|9997=1319|52=20111023-15:54:58|34=431|9998=374498|56=BRKR|49=INVMGR|9999=928628|10=101|8=FIXT.1.1|9=85|35=X|9997=1319|52=20111023-15:54:58|34=432|9998=374498|56=BRKR|49=INVMGR|9999=928669|10=101|8=FIXT.1.1|9=85|35=X|9997=1319|52=20111023-15:54:58|34=433|9998=374498|56=BRKR|49=INVMGR|9999=928712|10=101|8=FIXT.1.1|9=85|35=X|9997=1319|52=20111023-15:54:58|34=434|9998=374498|56=BRKR|49=INVMGR|9999=928752|10=101|8=FIXT.1.1|9=85|35=X|9997=1319|52=20111023-15:54:58|34=435|9998=374498|56=BRKR|49=INVMGR|9999=928796|10=101|8=FIXT.1.1|9=85|35=X|9997=1319|52=20111023-15:54:58|34=436|9998=374498|56=BRKR|49=INVMGR|9999=928841|10=101|8=FIXT.1.1|9=85|35=X|9997=1319|52=20111023-15:54:58|34=437|9998=374498|56=BRKR|49=INVMGR|9999=928883|10=101|8=FIXT.1.1|9=85|35=X|9997=1319|52=20111023-15:54:58|34=438|9998=374498|56=BRKR|49=INVMGR|9999=928924|10=101|8=FIXT.1.1|9=85|35=X|9997=1319|52=20111023-15:54:58|34=439|9998=374498|56=BRKR|49=INVMGR|9999=928973|10=101|8=FIXT.1.1|9=85|35=X|9997=1319|52=20111023-15:54:58|34=440|9998=374498|56=BRKR|49=INVMGR|9999=929012|10=101|8=FIXT.1.1|9=85|35=X|9997=1319|52=20111023-15:54:58|34=441|9998=374498|56=BRKR|49=INVMGR|9999=929057|10=101|8=FIXT.1.1|9=85|35=X|9997=1319|52=20111023-15:54:58|34=442|9998=374498|56=BRKR|49=INVMGR|9999=929098|10=101|8=FIXT.1.1|9=85|35=X|9997=1319|52=20111023-15:54:58|34=443|9998=374498|56=BRKR|49=INVMGR|9999=929137|10=101|8=FIXT.1.1|9=85|35=X|9997=1319|52=20111023-15:54:58|34=444|9998=374498|56=BRKR|49=INVMGR|9999=929184|10=101|8=FIXT.1.1|9=85|35=X|9997=1319|52=20111023-15:54:58|34=445|9998=374498|56=BRKR|49=INVMGR|9999=929228|10=101|8=FIXT.1.1|9=85|35=X|9997=1319|52=20111023-15:54:58|34=446|9998=374498|56=BRKR|49=INVMGR|9999=929265|10=101|8=FIXT.1.1|9=85|35=X|9997=1319|52=20111023-15:54:58|34=447|9998=374498|56=BRKR|49=INVMGR|9999=929309|10=101|8=FIXT.1.1|9=85|35=X|9997=1319|52=20111023-15:54:58|34=448|9998=374498|56=BRKR|49=INVMGR|9999=929351|10=101|8=FIXT.1.1|9=85|35=X|9997=1319|52=20111023-15:54:58|34=449|9998=374498|56=BRKR|49=INVMGR|9999=929396|10=101|8=FIXT.1.1|9=85|35=X|9997=1319|52=20111023-15:54:58|34=450|9998=374498|56=BRKR|49=INVMGR|9999=929435|10=101|8=FIXT.1.1|9=85|35=X|9997=1319|52=20111023-15:54:58|34=451|9998=374498|56=BRKR|49=INVMGR|9999=929479|10=101|8=FIXT.1.1|9=85|35=X|9997=1319|52=20111023-15:54:58|34=452|9998=374498|56=BRKR|49=INVMGR|9999=929522|10=101|8=FIXT.1.1|9=85|35=X|9997=1319|52=20111023-15:54:58|34=453|9998=374498|56=BRKR|49=INVMGR|9999=929566|10=101|8=FIXT.1.1|9=85|35=X|9997=1319|52=20111023-15:54:58|34=454|9998=374498|56=BRKR|49=INVMGR|9999=929605|10=101|8=FIXT.1.1|9=85|35=X|9997=1319|52=20111023-15:54:58|34=455|9998=374498|56=BRKR|49=INVMGR|9999=929648|10=101|8=FIXT.1.1|9=85|35=X|9997=1319|52=20111023-15:54:58|34=456|9998=374498|56=BRKR|49=INVMGR|9999=929687|10=101|8=FIXT.1.1|9=85|35=X|9997=1319|52=20111023-15:54:58|34=457|9998=374498|56=BRKR|49=INVMGR|9999=929732|10=101|8=FIXT.1.1|9=85|35=X|9997=1319|52=20111023-15:54:58|34=458|9998=374498|56=BRKR|49=INVMGR|9999=929773|10=101|8=FIXT.1.1|9=85|35=X|9997=1319|52=20111023-15:54:58|34=459|9998=374498|56=BRKR|49=INVMGR|9999=929815|10=101|8=FIXT.1.1|9=85|35=X|9997=1319|52=20111023-15:54:58|34=460|9998=374498|56=BRKR|49=INVMGR|9999=929857|10=101|8=FIXT.1.1|9=85|35=X|9997=1319|52=20111023-15:54:58|34=461|9998=374498|56=BRKR|49=INVMGR|9999=929904|10=101|8=FIXT.1.1|9=85|35=X|9997=1319|52=20111023-15:54:58|34=462|9998=374498|56=BRKR|49=INVMGR|9999=929945|10=101|8=FIXT.1.1|9=85|35=X|9997=1319|52=20111023-15:54:58|34=463|9998=374498|56=BRKR|49=INVMGR|9999=929996|10=101|8=FIXT.1.1|9=85|35=X|9997=1319|52=20111023-15:54:58|34=464|9998=374498|56=BRKR|49=INVMGR|9999=930034|10=101|8=FIXT.1.1|9=85|35=X|9997=1319|52=20111023-15:54:58|34=465|9998=374498|56=BRKR|49=INVMGR|9999=930080|10=101|8=FIXT.1.1|9=85|35=X|9997=1319|52=20111023-15:54:58|34=466|9998=374498|56=BRKR|49=INVMGR|9999=930120|10=101|8=FIXT.1.1|9=85|35=X|9997=1319|52=20111023-15:54:58|34=467|9998=374498|56=BRKR|49=INVMGR|9999=930164|10=101|8=FIXT.1.1|9=85|35=X|9997=1319|52=20111023-15:54:58|34=468|9998=374498|56=BRKR|49=INVMGR|9999=930203|10=101|8=FIXT.1.1|9=85|35=X|9997=1319|52=20111023-15:54:58|34=469|9998=374498|56=BRKR|49=INVMGR|9999=930251|10=101|8=FIXT.1.1|9=85|35=X|9997=1319|52=20111023-15:54:58|34=470|9998=374498|56=BRKR|49=INVMGR|9999=930289|10=101|8=FIXT.1.1|9=85|35=X|9997=1319|52=20111023-15:54:58|34=471|9998=374498|56=BRKR|49=INVMGR|9999=930331|10=101|8=FIXT.1.1|9=85|35=X|9997=1319|52=20111023-15:54:58|34=472|9998=374498|56=BRKR|49=INVMGR|9999=930373|10=101|8=FIXT.1.1|9=85|35=X|9997=1319|52=20111023-15:54:58|34=473|9998=374498|56=BRKR|49=INVMGR|9999=930417|10=101|8=FIXT.1.1|9=85|35=X|9997=1319|52=20111023-15:54:58|34=474|9998=374498|56=BRKR|49=INVMGR|9999=930457|10=101|8=FIXT.1.1|9=85|35=X|9997=1319|52=20111023-15:54:58|34=475|9998=374498|56=BRKR|49=INVMGR|9999=930500|10=101|8=FIXT.1.1|9=85|35=X|9997=1319|52=20111023-15:54:58|34=476|9998=374498|56=BRKR|49=INVMGR|9999=930540|10=101|8=FIXT.1.1|9=85|35=X|9997=1319|52=20111023-15:54:58|34=477|9998=374498|56=BRKR|49=INVMGR|9999=930588|10=101|8=FIXT.1.1|9=85|35=X|9997=1319|52=20111023-15:54:58|34=478|9998=374498|56=BRKR|49=INVMGR|9999=930627|10=101|8=FIXT.1.1|9=85|35=X|9997=1319|52=20111023-15:54:58|34=479|9998=374498|56=BRKR|49=INVMGR|9999=930671|10=101|8=FIXT.1.1|9=85|35=X|9997=1319|52=20111023-15:54:58|34=480|9998=374498|56=BRKR|49=INVMGR|9999=930708|10=101|8=FIXT.1.1|9=85|35=X|9997=1319|52=20111023-15:54:58|34=481|9998=374498|56=BRKR|49=INVMGR|9999=930753|10=101|8=FIXT.1.1|9=85|35=X|9997=1319|52=20111023-15:54:58|34=482|9998=374498|56=BRKR|49=INVMGR|9999=930791|10=101|8=FIXT.1.1|9=85|35=X|9997=1319|52=20111023-15:54:58|34=483|9998=374498|56=BRKR|49=INVMGR|9999=930835|10=101|8=FIXT.1.1|9=85|35=X|9997=1319|52=20111023-15:54:58|34=484|9998=374498|56=BRKR|49=INVMGR|9999=930874|10=101|8=FIXT.1.1|9=85|35=X|9997=1319|52=20111023-15:54:58|34=485|9998=374498|56=BRKR|49=INVMGR|9999=930917|10=101|8=FIXT.1.1|9=85|35=X|9997=1319|52=20111023-15:54:58|34=486|9998=374498|56=BRKR|49=INVMGR|9999=930961|10=101|8=FIXT.1.1|9=85|35=X|9997=1319|52=20111023-15:54:58|34=487|9998=374498|56=BRKR|49=INVMGR|9999=931011|10=101|8=FIXT.1.1|9=85|35=X|9997=1319|52=20111023-15:54:58|34=488|9998=374498|56=BRKR|49=INVMGR|9999=931052|10=101|8=FIXT.1.1|9=85|35=X|9997=1319|52=20111023-15:54:58|34=489|9998=374498|56=BRKR|49=INVMGR|9999=931093|10=101|8=FIXT.1.1|9=85|35=X|9997=1319|52=20111023-15:54:58|34=490|9998=374498|56=BRKR|49=INVMGR|9999=931135|10=101|8=FIXT.1.1|9=85|35=X|9997=1319|52=20111023-15:54:58|34=491|9998=374498|56=BRKR|49=INVMGR|9999=931179|10=101|8=FIXT.1.1|9=85|35=X|9997=1319|52=20111023-15:54:58|34=492|9998=374498|56=BRKR|49=INVMGR|9999=931219|10=101|8=FIXT.1.1|9=85|35=X|9997=1319|52=20111023-15:54:58|34=493|9998=374498|56=BRKR|49=INVMGR|9999=931261|10=101|8=FIXT.1.1|9=85|35=X|9997=1319|52=20111023-15:54:58|34=494|9998=374498|56=BRKR|49=INVMGR|9999=931305|10=101|8=FIXT.1.1|9=85|35=X|9997=1319|52=20111023-15:54:58|34=495|9998=374498|56=BRKR|49=INVMGR|9999=931350|10=101|8=FIXT.1.1|9=85|35=X|9997=1319|52=20111023-15:54:58|34=496|9998=374498|56=BRKR|49=INVMGR|9999=931391|10=101|8=FIXT.1.1|9=85|35=X|9997=1319|52=20111023-15:54:58|34=497|9998=374498|56=BRKR|49=INVMGR|9999=931434|10=101|8=FIXT.1.1|9=85|35=X|9997=1319|52=20111023-15:54:58|34=498|9998=374498|56=BRKR|49=INVMGR|9999=931477|10=101|8=FIXT.1.1|9=85|35=X|9997=1319|52=20111023-15:54:58|34=499|9998=374498|56=BRKR|49=INVMGR|9999=931520|10=101|8=FIXT.1.1|9=85|35=X|9997=1319|52=20111023-15:54:58|34=500|9998=374498|56=BRKR|49=INVMGR|9999=931557|10=101|8=FIXT.1.1|9=85|35=X|9997=1319|52=20111023-15:54:58|34=501|9998=374498|56=BRKR|49=INVMGR|9999=931601|10=101|8=FIXT.1.1|9=85|35=X|9997=1319|52=20111023-15:54:58|34=502|9998=374498|56=BRKR|49=INVMGR|9999=931644|10=101|8=FIXT.1.1|9=85|35=X|9997=1319|52=20111023-15:54:58|34=503|9998=374498|56=BRKR|49=INVMGR|9999=931687|10=101|8=FIXT.1.1|9=85|35=X|9997=1319|52=20111023-15:54:58|34=504|9998=374498|56=BRKR|49=INVMGR|9999=931727|10=101|8=FIXT.1.1|9=85|35=X|9997=1319|52=20111023-15:54:58|34=505|9998=374498|56=BRKR|49=INVMGR|9999=931770|10=101|8=FIXT.1.1|9=85|35=X|9997=1319|52=20111023-15:54:58|34=506|9998=374498|56=BRKR|49=INVMGR|9999=931811|10=101|8=FIXT.1.1|9=85|35=X|9997=1319|52=20111023-15:54:58|34=507|9998=374498|56=BRKR|49=INVMGR|9999=931855|10=101|8=FIXT.1.1|9=85|35=X|9997=1319|52=20111023-15:54:58|34=508|9998=374498|56=BRKR|49=INVMGR|9999=931895|10=101|8=FIXT.1.1|9=85|35=X|9997=1319|52=20111023-15:54:58|34=509|9998=374498|56=BRKR|49=INVMGR|9999=931938|10=101|8=FIXT.1.1|9=85|35=X|9997=1319|52=20111023-15:54:58|34=510|9998=374498|56=BRKR|49=INVMGR|9999=931988|10=101|8=FIXT.1.1|9=85|35=X|9997=1319|52=20111023-15:54:58|34=511|9998=374498|56=BRKR|49=INVMGR|9999=932033|10=101|8=FIXT.1.1|9=85|35=X|9997=1319|52=20111023-15:54:58|34=512|9998=374498|56=BRKR|49=INVMGR|9999=932074|10=101|8=FIXT.1.1|9=85|35=X|9997=1319|52=20111023-15:54:58|34=513|9998=374498|56=BRKR|49=INVMGR|9999=932115|10=101|8=FIXT.1.1|9=85|35=X|9997=1319|52=20111023-15:54:58|34=514|9998=374498|56=BRKR|49=INVMGR|9999=932156|10=101|8=FIXT.1.1|9=85|35=X|9997=1319|52=20111023-15:54:58|34=515|9998=374498|56=BRKR|49=INVMGR|9999=932197|10=101|8=FIXT.1.1|9=85|35=X|9997=1319|52=20111023-15:54:58|34=516|9998=374498|56=BRKR|49=INVMGR|9999=932238|10=101|8=FIXT.1.1|9=85|35=X|9997=1319|52=20111023-15:54:58|34=517|9998=374498|56=BRKR|49=INVMGR|9999=932280|10=101|8=FIXT.1.1|9=85|35=X|9997=1319|52=20111023-15:54:58|34=518|9998=374498|56=BRKR|49=INVMGR|9999=932320|10=101|8=FIXT.1.1|9=85|35=X|9997=1319|52=20111023-15:54:58|34=519|9998=374498|56=BRKR|49=INVMGR|9999=932367|10=101|8=FIXT.1.1|9=85|35=X|9997=1319|52=20111023-15:54:58|34=520|9998=374498|56=BRKR|49=INVMGR|9999=932408|10=101|8=FIXT.1.1|9=85|35=X|9997=1319|52=20111023-15:54:58|34=521|9998=374498|56=BRKR|49=INVMGR|9999=932450|10=101|8=FIXT.1.1|9=85|35=X|9997=1319|52=20111023-15:54:58|34=522|9998=374498|56=BRKR|49=INVMGR|9999=932490|10=101|8=FIXT.1.1|9=85|35=X|9997=1319|52=20111023-15:54:58|34=523|9998=374498|56=BRKR|49=INVMGR|9999=932533|10=101|8=FIXT.1.1|9=85|35=X|9997=1319|52=20111023-15:54:58|34=524|9998=374498|56=BRKR|49=INVMGR|9999=932573|10=101|8=FIXT.1.1|9=85|35=X|9997=1319|52=20111023-15:54:58|34=525|9998=374498|56=BRKR|49=INVMGR|9999=932616|10=101|8=FIXT.1.1|9=85|35=X|9997=1319|52=20111023-15:54:58|34=526|9998=374498|56=BRKR|49=INVMGR|9999=932656|10=101|8=FIXT.1.1|9=85|35=X|9997=1319|52=20111023-15:54:58|34=527|9998=374498|56=BRKR|49=INVMGR|9999=932703|10=101|8=FIXT.1.1|9=85|35=X|9997=1319|52=20111023-15:54:58|34=528|9998=374498|56=BRKR|49=INVMGR|9999=932742|10=101|8=FIXT.1.1|9=85|35=X|9997=1319|52=20111023-15:54:58|34=529|9998=374498|56=BRKR|49=INVMGR|9999=932786|10=101|8=FIXT.1.1|9=85|35=X|9997=1319|52=20111023-15:54:58|34=530|9998=374498|56=BRKR|49=INVMGR|9999=932826|10=101|8=FIXT.1.1|9=85|35=X|9997=1319|52=20111023-15:54:58|34=531|9998=374498|56=BRKR|49=INVMGR|9999=932870|10=101|8=FIXT.1.1|9=85|35=X|9997=1319|52=20111023-15:54:58|34=532|9998=374498|56=BRKR|49=INVMGR|9999=932909|10=101|8=FIXT.1.1|9=85|35=X|9997=1319|52=20111023-15:54:58|34=533|9998=374498|56=BRKR|49=INVMGR|9999=932954|10=101|8=FIXT.1.1|9=85|35=X|9997=1319|52=20111023-15:54:58|34=534|9998=374498|56=BRKR|49=INVMGR|9999=933000|10=101|8=FIXT.1.1|9=85|35=X|9997=1319|52=20111023-15:54:58|34=535|9998=374498|56=BRKR|49=INVMGR|9999=933049|10=101|8=FIXT.1.1|9=85|35=X|9997=1319|52=20111023-15:54:58|34=536|9998=374498|56=BRKR|49=INVMGR|9999=933088|10=101|8=FIXT.1.1|9=85|35=X|9997=1319|52=20111023-15:54:58|34=537|9998=374498|56=BRKR|49=INVMGR|9999=933133|10=101|8=FIXT.1.1|9=85|35=X|9997=1319|52=20111023-15:54:58|34=538|9998=374498|56=BRKR|49=INVMGR|9999=933173|10=101|8=FIXT.1.1|9=85|35=X|9997=1319|52=20111023-15:54:58|34=539|9998=374498|56=BRKR|49=INVMGR|9999=933217|10=101|8=FIXT.1.1|9=85|35=X|9997=1319|52=20111023-15:54:58|34=540|9998=374498|56=BRKR|49=INVMGR|9999=933258|10=101|8=FIXT.1.1|9=85|35=X|9997=1319|52=20111023-15:54:58|34=541|9998=374498|56=BRKR|49=INVMGR|9999=933299|10=101|8=FIXT.1.1|9=85|35=X|9997=1319|52=20111023-15:54:58|34=542|9998=374498|56=BRKR|49=INVMGR|9999=933340|10=101|8=FIXT.1.1|9=85|35=X|9997=1319|52=20111023-15:54:58|34=543|9998=374498|56=BRKR|49=INVMGR|9999=933383|10=101|8=FIXT.1.1|9=85|35=X|9997=1319|52=20111023-15:54:58|34=544|9998=374498|56=BRKR|49=INVMGR|9999=933429|10=101|8=FIXT.1.1|9=85|35=X|9997=1319|52=20111023-15:54:58|34=545|9998=374498|56=BRKR|49=INVMGR|9999=933473|10=101|8=FIXT.1.1|9=85|35=X|9997=1319|52=20111023-15:54:58|34=546|9998=374498|56=BRKR|49=INVMGR|9999=933514|10=101|8=FIXT.1.1|9=85|35=X|9997=1319|52=20111023-15:54:58|34=547|9998=374498|56=BRKR|49=INVMGR|9999=933558|10=101|8=FIXT.1.1|9=85|35=X|9997=1319|52=20111023-15:54:58|34=548|9998=374498|56=BRKR|49=INVMGR|9999=933601|10=101|8=FIXT.1.1|9=85|35=X|9997=1319|52=20111023-15:54:58|34=549|9998=374498|56=BRKR|49=INVMGR|9999=933645|10=101|8=FIXT.1.1|9=85|35=X|9997=1319|52=20111023-15:54:58|34=550|9998=374498|56=BRKR|49=INVMGR|9999=933685|10=101|8=FIXT.1.1|9=85|35=X|9997=1319|52=20111023-15:54:58|34=551|9998=374498|56=BRKR|49=INVMGR|9999=933729|10=101|8=FIXT.1.1|9=85|35=X|9997=1319|52=20111023-15:54:58|34=552|9998=374498|56=BRKR|49=INVMGR|9999=933774|10=101|8=FIXT.1.1|9=85|35=X|9997=1319|52=20111023-15:54:58|34=553|9998=374498|56=BRKR|49=INVMGR|9999=933819|10=101|8=FIXT.1.1|9=85|35=X|9997=1319|52=20111023-15:54:58|34=554|9998=374498|56=BRKR|49=INVMGR|9999=933860|10=101|8=FIXT.1.1|9=85|35=X|9997=1319|52=20111023-15:54:58|34=555|9998=374498|56=BRKR|49=INVMGR|9999=933904|10=101|8=FIXT.1.1|9=85|35=X|9997=1319|52=20111023-15:54:58|34=556|9998=374498|56=BRKR|49=INVMGR|9999=933946|10=101|8=FIXT.1.1|9=85|35=X|9997=1319|52=20111023-15:54:58|34=557|9998=374498|56=BRKR|49=INVMGR|9999=933994|10=101|8=FIXT.1.1|9=85|35=X|9997=1319|52=20111023-15:54:58|34=558|9998=374498|56=BRKR|49=INVMGR|9999=934035|10=101|8=FIXT.1.1|9=85|35=X|9997=1319|52=20111023-15:54:58|34=559|9998=374498|56=BRKR|49=INVMGR|9999=934079|10=101|8=FIXT.1.1|9=85|35=X|9997=1319|52=20111023-15:54:58|34=560|9998=374498|56=BRKR|49=INVMGR|9999=934125|10=101|8=FIXT.1.1|9=85|35=X|9997=1319|52=20111023-15:54:58|34=561|9998=374498|56=BRKR|49=INVMGR|9999=934165|10=101|8=FIXT.1.1|9=85|35=X|9997=1319|52=20111023-15:54:58|34=562|9998=374498|56=BRKR|49=INVMGR|9999=934207|10=101|8=FIXT.1.1|9=85|35=X|9997=1319|52=20111023-15:54:58|34=563|9998=374498|56=BRKR|49=INVMGR|9999=934250|10=101|8=FIXT.1.1|9=85|35=X|9997=1319|52=20111023-15:54:58|34=564|9998=374498|56=BRKR|49=INVMGR|9999=934292|10=101|8=FIXT.1.1|9=85|35=X|9997=1319|52=20111023-15:54:58|34=565|9998=374498|56=BRKR|49=INVMGR|9999=934667|10=101|8=FIXT.1.1|9=85|35=X|9997=1319|52=20111023-15:54:58|34=566|9998=374498|56=BRKR|49=INVMGR|9999=934733|10=101|8=FIXT.1.1|9=85|35=X|9997=1319|52=20111023-15:54:58|34=567|9998=374498|56=BRKR|49=INVMGR|9999=934790|10=101|8=FIXT.1.1|9=85|35=X|9997=1319|52=20111023-15:54:58|34=568|9998=374498|56=BRKR|49=INVMGR|9999=934836|10=101|8=FIXT.1.1|9=85|35=X|9997=1319|52=20111023-15:54:58|34=569|9998=374498|56=BRKR|49=INVMGR|9999=934881|10=101|8=FIXT.1.1|9=85|35=X|9997=1319|52=20111023-15:54:58|34=570|9998=374498|56=BRKR|49=INVMGR|9999=934922|10=101|8=FIXT.1.1|9=85|35=X|9997=1319|52=20111023-15:54:58|34=571|9998=374498|56=BRKR|49=INVMGR|9999=934974|10=101|8=FIXT.1.1|9=85|35=X|9997=1319|52=20111023-15:54:58|34=572|9998=374498|56=BRKR|49=INVMGR|9999=935016|10=101|8=FIXT.1.1|9=85|35=X|9997=1319|52=20111023-15:54:58|34=573|9998=374498|56=BRKR|49=INVMGR|9999=935062|10=101|8=FIXT.1.1|9=85|35=X|9997=1319|52=20111023-15:54:58|34=574|9998=374498|56=BRKR|49=INVMGR|9999=935103|10=101|8=FIXT.1.1|9=85|35=X|9997=1319|52=20111023-15:54:58|34=575|9998=374498|56=BRKR|49=INVMGR|9999=935147|10=101|8=FIXT.1.1|9=85|35=X|9997=1319|52=20111023-15:54:58|34=576|9998=374498|56=BRKR|49=INVMGR|9999=935188|10=101|8=FIXT.1.1|9=85|35=X|9997=1319|52=20111023-15:54:58|34=577|9998=374498|56=BRKR|49=INVMGR|9999=935239|10=101|8=FIXT.1.1|9=85|35=X|9997=1319|52=20111023-15:54:58|34=578|9998=374498|56=BRKR|49=INVMGR|9999=935280|10=101|8=FIXT.1.1|9=85|35=X|9997=1319|52=20111023-15:54:58|34=579|9998=374498|56=BRKR|49=INVMGR|9999=935323|10=101|8=FIXT.1.1|9=85|35=X|9997=1319|52=20111023-15:54:58|34=580|9998=374498|56=BRKR|49=INVMGR|9999=935364|10=101|8=FIXT.1.1|9=85|35=X|9997=1319|52=20111023-15:54:58|34=581|9998=374498|56=BRKR|49=INVMGR|9999=935408|10=101|8=FIXT.1.1|9=85|35=X|9997=1319|52=20111023-15:54:58|34=582|9998=374498|56=BRKR|49=INVMGR|9999=935442|10=101|8=FIXT.1.1|9=85|35=X|9997=1319|52=20111023-15:54:58|34=583|9998=374498|56=BRKR|49=INVMGR|9999=935470|10=101|8=FIXT.1.1|9=85|35=X|9997=1319|52=20111023-15:54:58|34=584|9998=374498|56=BRKR|49=INVMGR|9999=935495|10=101|8=FIXT.1.1|9=85|35=X|9997=1319|52=20111023-15:54:58|34=585|9998=374498|56=BRKR|49=INVMGR|9999=935543|10=101|8=FIXT.1.1|9=85|35=X|9997=1319|52=20111023-15:54:58|34=586|9998=374498|56=BRKR|49=INVMGR|9999=935584|10=101|8=FIXT.1.1|9=85|35=X|9997=1319|52=20111023-15:54:58|34=587|9998=374498|56=BRKR|49=INVMGR|9999=935626|10=101|8=FIXT.1.1|9=85|35=X|9997=1319|52=20111023-15:54:58|34=588|9998=374498|56=BRKR|49=INVMGR|9999=935667|10=101|8=FIXT.1.1|9=85|35=X|9997=1319|52=20111023-15:54:58|34=589|9998=374498|56=BRKR|49=INVMGR|9999=935711|10=101|8=FIXT.1.1|9=85|35=X|9997=1319|52=20111023-15:54:58|34=590|9998=374498|56=BRKR|49=INVMGR|9999=935751|10=101|8=FIXT.1.1|9=85|35=X|9997=1319|52=20111023-15:54:58|34=591|9998=374498|56=BRKR|49=INVMGR|9999=935796|10=101|8=FIXT.1.1|9=85|35=X|9997=1319|52=20111023-15:54:58|34=592|9998=374498|56=BRKR|49=INVMGR|9999=935833|10=101|8=FIXT.1.1|9=85|35=X|9997=1319|52=20111023-15:54:58|34=593|9998=374498|56=BRKR|49=INVMGR|9999=935865|10=101|8=FIXT.1.1|9=85|35=X|9997=1319|52=20111023-15:54:58|34=594|9998=374498|56=BRKR|49=INVMGR|9999=935891|10=101|8=FIXT.1.1|9=85|35=X|9997=1319|52=20111023-15:54:58|34=595|9998=374498|56=BRKR|49=INVMGR|9999=935918|10=101|8=FIXT.1.1|9=85|35=X|9997=1319|52=20111023-15:54:58|34=596|9998=374498|56=BRKR|49=INVMGR|9999=935943|10=101|8=FIXT.1.1|9=85|35=X|9997=1319|52=20111023-15:54:58|34=597|9998=374498|56=BRKR|49=INVMGR|9999=935979|10=101|8=FIXT.1.1|9=85|35=X|9997=1319|52=20111023-15:54:58|34=598|9998=374498|56=BRKR|49=INVMGR|9999=936005|10=101|8=FIXT.1.1|9=85|35=X|9997=1319|52=20111023-15:54:58|34=599|9998=374498|56=BRKR|49=INVMGR|9999=936032|10=101|8=FIXT.1.1|9=85|35=X|9997=1319|52=20111023-15:54:58|34=600|9998=374498|56=BRKR|49=INVMGR|9999=936057|10=101|8=FIXT.1.1|9=85|35=X|9997=1319|52=20111023-15:54:58|34=601|9998=374498|56=BRKR|49=INVMGR|9999=936084|10=101|8=FIXT.1.1|9=85|35=X|9997=1319|52=20111023-15:54:58|34=602|9998=374498|56=BRKR|49=INVMGR|9999=936115|10=101|8=FIXT.1.1|9=85|35=X|9997=1319|52=20111023-15:54:58|34=603|9998=374498|56=BRKR|49=INVMGR|9999=936160|10=101|8=FIXT.1.1|9=85|35=X|9997=1319|52=20111023-15:54:58|34=604|9998=374498|56=BRKR|49=INVMGR|9999=936199|10=101|8=FIXT.1.1|9=85|35=X|9997=1319|52=20111023-15:54:58|34=605|9998=374498|56=BRKR|49=INVMGR|9999=936243|10=101|8=FIXT.1.1|9=85|35=X|9997=1319|52=20111023-15:54:58|34=606|9998=374498|56=BRKR|49=INVMGR|9999=936284|10=101|8=FIXT.1.1|9=85|35=X|9997=1319|52=20111023-15:54:58|34=607|9998=374498|56=BRKR|49=INVMGR|9999=936328|10=101|8=FIXT.1.1|9=85|35=X|9997=1319|52=20111023-15:54:58|34=608|9998=374498|56=BRKR|49=INVMGR|9999=936367|10=101|8=FIXT.1.1|9=85|35=X|9997=1319|52=20111023-15:54:58|34=609|9998=374498|56=BRKR|49=INVMGR|9999=936412|10=101|8=FIXT.1.1|9=85|35=X|9997=1319|52=20111023-15:54:58|34=610|9998=374498|56=BRKR|49=INVMGR|9999=936457|10=101|8=FIXT.1.1|9=85|35=X|9997=1319|52=20111023-15:54:58|34=611|9998=374498|56=BRKR|49=INVMGR|9999=936499|10=101|8=FIXT.1.1|9=85|35=X|9997=1319|52=20111023-15:54:58|34=612|9998=374498|56=BRKR|49=INVMGR|9999=936541|10=101|8=FIXT.1.1|9=85|35=X|9997=1319|52=20111023-15:54:58|34=613|9998=374498|56=BRKR|49=INVMGR|9999=936581|10=101|8=FIXT.1.1|9=85|35=X|9997=1319|52=20111023-15:54:58|34=614|9998=374498|56=BRKR|49=INVMGR|9999=936623|10=101|8=FIXT.1.1|9=85|35=X|9997=1319|52=20111023-15:54:58|34=615|9998=374498|56=BRKR|49=INVMGR|9999=936664|10=101|8=FIXT.1.1|9=85|35=X|9997=1319|52=20111023-15:54:58|34=616|9998=374498|56=BRKR|49=INVMGR|9999=936704|10=101|8=FIXT.1.1|9=85|35=X|9997=1319|52=20111023-15:54:58|34=617|9998=374498|56=BRKR|49=INVMGR|9999=936747|10=101|8=FIXT.1.1|9=85|35=X|9997=1319|52=20111023-15:54:58|34=618|9998=374498|56=BRKR|49=INVMGR|9999=936793|10=101|8=FIXT.1.1|9=85|35=X|9997=1319|52=20111023-15:54:58|34=619|9998=374498|56=BRKR|49=INVMGR|9999=936834|10=101|8=FIXT.1.1|9=85|35=X|9997=1319|52=20111023-15:54:58|34=620|9998=374498|56=BRKR|49=INVMGR|9999=936874|10=101|8=FIXT.1.1|9=85|35=X|9997=1319|52=20111023-15:54:58|34=621|9998=374498|56=BRKR|49=INVMGR|9999=936916|10=101|8=FIXT.1.1|9=85|35=X|9997=1319|52=20111023-15:54:58|34=622|9998=374498|56=BRKR|49=INVMGR|9999=936958|10=101|8=FIXT.1.1|9=85|35=X|9997=1319|52=20111023-15:54:58|34=623|9998=374498|56=BRKR|49=INVMGR|9999=937007|10=101|8=FIXT.1.1|9=85|35=X|9997=1319|52=20111023-15:54:58|34=624|9998=374498|56=BRKR|49=INVMGR|9999=937048|10=101|8=FIXT.1.1|9=85|35=X|9997=1319|52=20111023-15:54:58|34=625|9998=374498|56=BRKR|49=INVMGR|9999=937087|10=101|8=FIXT.1.1|9=85|35=X|9997=1319|52=20111023-15:54:58|34=626|9998=374498|56=BRKR|49=INVMGR|9999=937133|10=101|8=FIXT.1.1|9=85|35=X|9997=1319|52=20111023-15:54:58|34=627|9998=374498|56=BRKR|49=INVMGR|9999=937176|10=101|8=FIXT.1.1|9=85|35=X|9997=1319|52=20111023-15:54:58|34=628|9998=374498|56=BRKR|49=INVMGR|9999=937217|10=101|8=FIXT.1.1|9=85|35=X|9997=1319|52=20111023-15:54:58|34=629|9998=374498|56=BRKR|49=INVMGR|9999=937259|10=101|8=FIXT.1.1|9=85|35=X|9997=1319|52=20111023-15:54:58|34=630|9998=374498|56=BRKR|49=INVMGR|9999=937303|10=101|8=FIXT.1.1|9=85|35=X|9997=1319|52=20111023-15:54:58|34=631|9998=374498|56=BRKR|49=INVMGR|9999=937347|10=101|8=FIXT.1.1|9=85|35=X|9997=1319|52=20111023-15:54:58|34=632|9998=374498|56=BRKR|49=INVMGR|9999=937387|10=101|8=FIXT.1.1|9=85|35=X|9997=1319|52=20111023-15:54:58|34=633|9998=374498|56=BRKR|49=INVMGR|9999=937430|10=101|8=FIXT.1.1|9=85|35=X|9997=1319|52=20111023-15:54:58|34=634|9998=374498|56=BRKR|49=INVMGR|9999=937470|10=101|8=FIXT.1.1|9=85|35=X|9997=1319|52=20111023-15:54:58|34=635|9998=374498|56=BRKR|49=INVMGR|9999=937518|10=101|8=FIXT.1.1|9=85|35=X|9997=1319|52=20111023-15:54:58|34=636|9998=374498|56=BRKR|49=INVMGR|9999=937558|10=101|8=FIXT.1.1|9=85|35=X|9997=1319|52=20111023-15:54:58|34=637|9998=374498|56=BRKR|49=INVMGR|9999=937601|10=101|8=FIXT.1.1|9=85|35=X|9997=1319|52=20111023-15:54:58|34=638|9998=374498|56=BRKR|49=INVMGR|9999=937640|10=101|8=FIXT.1.1|9=85|35=X|9997=1319|52=20111023-15:54:58|34=639|9998=374498|56=BRKR|49=INVMGR|9999=937685|10=101|8=FIXT.1.1|9=85|35=X|9997=1319|52=20111023-15:54:58|34=640|9998=374498|56=BRKR|49=INVMGR|9999=937722|10=101|8=FIXT.1.1|9=85|35=X|9997=1319|52=20111023-15:54:58|34=641|9998=374498|56=BRKR|49=INVMGR|9999=937766|10=101|8=FIXT.1.1|9=85|35=X|9997=1319|52=20111023-15:54:58|34=642|9998=374498|56=BRKR|49=INVMGR|9999=937807|10=101|8=FIXT.1.1|9=85|35=X|9997=1319|52=20111023-15:54:58|34=643|9998=374498|56=BRKR|49=INVMGR|9999=937855|10=101|8=FIXT.1.1|9=85|35=X|9997=1319|52=20111023-15:54:58|34=644|9998=374498|56=BRKR|49=INVMGR|9999=937896|10=101|8=FIXT.1.1|9=85|35=X|9997=1319|52=20111023-15:54:58|34=645|9998=374498|56=BRKR|49=INVMGR|9999=937937|10=101|8=FIXT.1.1|9=85|35=X|9997=1319|52=20111023-15:54:58|34=646|9998=374498|56=BRKR|49=INVMGR|9999=938558|10=101|8=FIXT.1.1|9=85|35=X|9997=1319|52=20111023-15:54:58|34=647|9998=374498|56=BRKR|49=INVMGR|9999=938620|10=101|8=FIXT.1.1|9=85|35=X|9997=1319|52=20111023-15:54:58|34=648|9998=374498|56=BRKR|49=INVMGR|9999=938662|10=101|8=FIXT.1.1|9=85|35=X|9997=1319|52=20111023-15:54:58|34=649|9998=374498|56=BRKR|49=INVMGR|9999=938705|10=101|8=FIXT.1.1|9=85|35=X|9997=1319|52=20111023-15:54:58|34=650|9998=374498|56=BRKR|49=INVMGR|9999=938745|10=101|8=FIXT.1.1|9=85|35=X|9997=1319|52=20111023-15:54:58|34=651|9998=374498|56=BRKR|49=INVMGR|9999=938792|10=101|8=FIXT.1.1|9=85|35=X|9997=1319|52=20111023-15:54:58|34=652|9998=374498|56=BRKR|49=INVMGR|9999=938831|10=101|8=FIXT.1.1|9=85|35=X|9997=1319|52=20111023-15:54:58|34=653|9998=374498|56=BRKR|49=INVMGR|9999=938874|10=101|8=FIXT.1.1|9=85|35=X|9997=1319|52=20111023-15:54:58|34=654|9998=374498|56=BRKR|49=INVMGR|9999=938915|10=101|8=FIXT.1.1|9=85|35=X|9997=1319|52=20111023-15:54:58|34=655|9998=374498|56=BRKR|49=INVMGR|9999=938959|10=101|8=FIXT.1.1|9=85|35=X|9997=1319|52=20111023-15:54:58|34=656|9998=374498|56=BRKR|49=INVMGR|9999=939005|10=101|8=FIXT.1.1|9=85|35=X|9997=1319|52=20111023-15:54:58|34=657|9998=374498|56=BRKR|49=INVMGR|9999=939048|10=101|8=FIXT.1.1|9=85|35=X|9997=1319|52=20111023-15:54:58|34=658|9998=374498|56=BRKR|49=INVMGR|9999=939088|10=101|8=FIXT.1.1|9=85|35=X|9997=1319|52=20111023-15:54:58|34=659|9998=374498|56=BRKR|49=INVMGR|9999=939131|10=101|8=FIXT.1.1|9=85|35=X|9997=1319|52=20111023-15:54:58|34=660|9998=374498|56=BRKR|49=INVMGR|9999=939175|10=101|8=FIXT.1.1|9=85|35=X|9997=1319|52=20111023-15:54:58|34=661|9998=374498|56=BRKR|49=INVMGR|9999=939219|10=101|8=FIXT.1.1|9=85|35=X|9997=1319|52=20111023-15:54:58|34=662|9998=374498|56=BRKR|49=INVMGR|9999=939259|10=101|8=FIXT.1.1|9=85|35=X|9997=1319|52=20111023-15:54:58|34=663|9998=374498|56=BRKR|49=INVMGR|9999=939302|10=101|8=FIXT.1.1|9=85|35=X|9997=1319|52=20111023-15:54:58|34=664|9998=374498|56=BRKR|49=INVMGR|9999=939343|10=101|8=FIXT.1.1|9=85|35=X|9997=1319|52=20111023-15:54:58|34=665|9998=374498|56=BRKR|49=INVMGR|9999=939388|10=101|8=FIXT.1.1|9=85|35=X|9997=1319|52=20111023-15:54:58|34=666|9998=374498|56=BRKR|49=INVMGR|9999=939428|10=101|8=FIXT.1.1|9=85|35=X|9997=1319|52=20111023-15:54:58|34=667|9998=374498|56=BRKR|49=INVMGR|9999=939470|10=101|8=FIXT.1.1|9=85|35=X|9997=1319|52=20111023-15:54:58|34=668|9998=374498|56=BRKR|49=INVMGR|9999=939513|10=101|8=FIXT.1.1|9=85|35=X|9997=1319|52=20111023-15:54:58|34=669|9998=374498|56=BRKR|49=INVMGR|9999=939557|10=101|8=FIXT.1.1|9=85|35=X|9997=1319|52=20111023-15:54:58|34=670|9998=374498|56=BRKR|49=INVMGR|9999=939597|10=101|8=FIXT.1.1|9=85|35=X|9997=1319|52=20111023-15:54:58|34=671|9998=374498|56=BRKR|49=INVMGR|9999=939640|10=101|8=FIXT.1.1|9=85|35=X|9997=1319|52=20111023-15:54:58|34=672|9998=374498|56=BRKR|49=INVMGR|9999=939681|10=101|8=FIXT.1.1|9=85|35=X|9997=1319|52=20111023-15:54:58|34=673|9998=374498|56=BRKR|49=INVMGR|9999=939724|10=101|8=FIXT.1.1|9=85|35=X|9997=1319|52=20111023-15:54:58|34=674|9998=374498|56=BRKR|49=INVMGR|9999=939763|10=101|8=FIXT.1.1|9=85|35=X|9997=1319|52=20111023-15:54:58|34=675|9998=374498|56=BRKR|49=INVMGR|9999=939806|10=101|8=FIXT.1.1|9=85|35=X|9997=1319|52=20111023-15:54:58|34=676|9998=374498|56=BRKR|49=INVMGR|9999=939850|10=101|8=FIXT.1.1|9=85|35=X|9997=1319|52=20111023-15:54:58|34=677|9998=374498|56=BRKR|49=INVMGR|9999=939892|10=101|8=FIXT.1.1|9=85|35=X|9997=1319|52=20111023-15:54:58|34=678|9998=374498|56=BRKR|49=INVMGR|9999=939933|10=101|8=FIXT.1.1|9=85|35=X|9997=1319|52=20111023-15:54:58|34=679|9998=374498|56=BRKR|49=INVMGR|9999=939982|10=101|8=FIXT.1.1|9=85|35=X|9997=1319|52=20111023-15:54:58|34=680|9998=374498|56=BRKR|49=INVMGR|9999=940023|10=101|8=FIXT.1.1|9=85|35=X|9997=1319|52=20111023-15:54:58|34=681|9998=374498|56=BRKR|49=INVMGR|9999=940066|10=101|8=FIXT.1.1|9=85|35=X|9997=1319|52=20111023-15:54:58|34=682|9998=374498|56=BRKR|49=INVMGR|9999=940105|10=101|8=FIXT.1.1|9=85|35=X|9997=1319|52=20111023-15:54:58|34=683|9998=374498|56=BRKR|49=INVMGR|9999=940148|10=101|8=FIXT.1.1|9=85|35=X|9997=1319|52=20111023-15:54:58|34=684|9998=374498|56=BRKR|49=INVMGR|9999=940191|10=101|8=FIXT.1.1|9=85|35=X|9997=1319|52=20111023-15:54:58|34=685|9998=374498|56=BRKR|49=INVMGR|9999=940236|10=101|8=FIXT.1.1|9=85|35=X|9997=1319|52=20111023-15:54:58|34=686|9998=374498|56=BRKR|49=INVMGR|9999=940277|10=101|8=FIXT.1.1|9=85|35=X|9997=1319|52=20111023-15:54:58|34=687|9998=374498|56=BRKR|49=INVMGR|9999=940319|10=101|8=FIXT.1.1|9=85|35=X|9997=1319|52=20111023-15:54:58|34=688|9998=374498|56=BRKR|49=INVMGR|9999=940358|10=101|8=FIXT.1.1|9=85|35=X|9997=1319|52=20111023-15:54:58|34=689|9998=374498|56=BRKR|49=INVMGR|9999=940401|10=101|8=FIXT.1.1|9=85|35=X|9997=1319|52=20111023-15:54:58|34=690|9998=374498|56=BRKR|49=INVMGR|9999=940441|10=101|8=FIXT.1.1|9=85|35=X|9997=1319|52=20111023-15:54:58|34=691|9998=374498|56=BRKR|49=INVMGR|9999=940484|10=101|8=FIXT.1.1|9=85|35=X|9997=1319|52=20111023-15:54:58|34=692|9998=374498|56=BRKR|49=INVMGR|9999=940524|10=101|8=FIXT.1.1|9=85|35=X|9997=1319|52=20111023-15:54:58|34=693|9998=374498|56=BRKR|49=INVMGR|9999=940572|10=101|8=FIXT.1.1|9=85|35=X|9997=1319|52=20111023-15:54:58|34=694|9998=374498|56=BRKR|49=INVMGR|9999=940612|10=101|8=FIXT.1.1|9=85|35=X|9997=1319|52=20111023-15:54:58|34=695|9998=374498|56=BRKR|49=INVMGR|9999=940654|10=101|8=FIXT.1.1|9=85|35=X|9997=1319|52=20111023-15:54:58|34=696|9998=374498|56=BRKR|49=INVMGR|9999=940695|10=101|8=FIXT.1.1|9=85|35=X|9997=1319|52=20111023-15:54:58|34=697|9998=374498|56=BRKR|49=INVMGR|9999=940739|10=101|8=FIXT.1.1|9=85|35=X|9997=1319|52=20111023-15:54:58|34=698|9998=374498|56=BRKR|49=INVMGR|9999=940778|10=101|8=FIXT.1.1|9=85|35=X|9997=1319|52=20111023-15:54:58|34=699|9998=374498|56=BRKR|49=INVMGR|9999=940820|10=101|8=FIXT.1.1|9=85|35=X|9997=1319|52=20111023-15:54:58|34=700|9998=374498|56=BRKR|49=INVMGR|9999=940860|10=101|8=FIXT.1.1|9=85|35=X|9997=1319|52=20111023-15:54:58|34=701|9998=374498|56=BRKR|49=INVMGR|9999=940907|10=101|8=FIXT.1.1|9=85|35=X|9997=1319|52=20111023-15:54:58|34=702|9998=374498|56=BRKR|49=INVMGR|9999=940948|10=101|8=FIXT.1.1|9=85|35=X|9997=1319|52=20111023-15:54:58|34=703|9998=374498|56=BRKR|49=INVMGR|9999=940998|10=101|8=FIXT.1.1|9=85|35=X|9997=1319|52=20111023-15:54:58|34=704|9998=374498|56=BRKR|49=INVMGR|9999=941038|10=101|8=FIXT.1.1|9=85|35=X|9997=1319|52=20111023-15:54:58|34=705|9998=374498|56=BRKR|49=INVMGR|9999=941081|10=101|8=FIXT.1.1|9=85|35=X|9997=1319|52=20111023-15:54:58|34=706|9998=374498|56=BRKR|49=INVMGR|9999=941121|10=101|8=FIXT.1.1|9=85|35=X|9997=1319|52=20111023-15:54:58|34=707|9998=374498|56=BRKR|49=INVMGR|9999=941164|10=101|8=FIXT.1.1|9=85|35=X|9997=1319|52=20111023-15:54:58|34=708|9998=374498|56=BRKR|49=INVMGR|9999=941204|10=101|8=FIXT.1.1|9=85|35=X|9997=1319|52=20111023-15:54:58|34=709|9998=374498|56=BRKR|49=INVMGR|9999=941251|10=101|8=FIXT.1.1|9=85|35=X|9997=1319|52=20111023-15:54:58|34=710|9998=374498|56=BRKR|49=INVMGR|9999=941292|10=101|8=FIXT.1.1|9=85|35=X|9997=1319|52=20111023-15:54:58|34=711|9998=374498|56=BRKR|49=INVMGR|9999=941335|10=101|8=FIXT.1.1|9=85|35=X|9997=1319|52=20111023-15:54:58|34=712|9998=374498|56=BRKR|49=INVMGR|9999=941374|10=101|8=FIXT.1.1|9=85|35=X|9997=1319|52=20111023-15:54:58|34=713|9998=374498|56=BRKR|49=INVMGR|9999=941418|10=101|8=FIXT.1.1|9=85|35=X|9997=1319|52=20111023-15:54:58|34=714|9998=374498|56=BRKR|49=INVMGR|9999=941458|10=101|8=FIXT.1.1|9=85|35=X|9997=1319|52=20111023-15:54:58|34=715|9998=374498|56=BRKR|49=INVMGR|9999=941501|10=101|8=FIXT.1.1|9=85|35=X|9997=1319|52=20111023-15:54:58|34=716|9998=374498|56=BRKR|49=INVMGR|9999=941541|10=101|8=FIXT.1.1|9=85|35=X|9997=1319|52=20111023-15:54:58|34=717|9998=374498|56=BRKR|49=INVMGR|9999=941584|10=101|8=FIXT.1.1|9=85|35=X|9997=1319|52=20111023-15:54:58|34=718|9998=374498|56=BRKR|49=INVMGR|9999=941628|10=101|8=FIXT.1.1|9=85|35=X|9997=1319|52=20111023-15:54:58|34=719|9998=374498|56=BRKR|49=INVMGR|9999=941672|10=101|8=FIXT.1.1|9=85|35=X|9997=1319|52=20111023-15:54:58|34=720|9998=374498|56=BRKR|49=INVMGR|9999=941712|10=101|8=FIXT.1.1|9=85|35=X|9997=1319|52=20111023-15:54:58|34=721|9998=374498|56=BRKR|49=INVMGR|9999=941755|10=101|8=FIXT.1.1|9=85|35=X|9997=1319|52=20111023-15:54:58|34=722|9998=374498|56=BRKR|49=INVMGR|9999=941797|10=101|8=FIXT.1.1|9=85|35=X|9997=1319|52=20111023-15:54:58|34=723|9998=374498|56=BRKR|49=INVMGR|9999=941842|10=101|8=FIXT.1.1|9=85|35=X|9997=1319|52=20111023-15:54:58|34=724|9998=374498|56=BRKR|49=INVMGR|9999=941883|10=101|8=FIXT.1.1|9=85|35=X|9997=1319|52=20111023-15:54:58|34=725|9998=374498|56=BRKR|49=INVMGR|9999=941927|10=101|8=FIXT.1.1|9=85|35=X|9997=1319|52=20111023-15:54:58|34=726|9998=374498|56=BRKR|49=INVMGR|9999=941975|10=101|8=FIXT.1.1|9=85|35=X|9997=1319|52=20111023-15:54:58|34=727|9998=374498|56=BRKR|49=INVMGR|9999=942021|10=101|8=FIXT.1.1|9=85|35=X|9997=1319|52=20111023-15:54:58|34=728|9998=374498|56=BRKR|49=INVMGR|9999=942062|10=101|8=FIXT.1.1|9=85|35=X|9997=1319|52=20111023-15:54:58|34=729|9998=374498|56=BRKR|49=INVMGR|9999=942103|10=101|8=FIXT.1.1|9=85|35=X|9997=1319|52=20111023-15:54:58|34=730|9998=374498|56=BRKR|49=INVMGR|9999=942144|10=101|8=FIXT.1.1|9=85|35=X|9997=1319|52=20111023-15:54:58|34=731|9998=374498|56=BRKR|49=INVMGR|9999=942188|10=101|8=FIXT.1.1|9=85|35=X|9997=1319|52=20111023-15:54:58|34=732|9998=374498|56=BRKR|49=INVMGR|9999=942224|10=101|8=FIXT.1.1|9=85|35=X|9997=1319|52=20111023-15:54:58|34=733|9998=374498|56=BRKR|49=INVMGR|9999=942268|10=101|8=FIXT.1.1|9=85|35=X|9997=1319|52=20111023-15:54:58|34=734|9998=374498|56=BRKR|49=INVMGR|9999=942312|10=101|8=FIXT.1.1|9=85|35=X|9997=1319|52=20111023-15:54:58|34=735|9998=374498|56=BRKR|49=INVMGR|9999=942355|10=101|8=FIXT.1.1|9=85|35=X|9997=1319|52=20111023-15:54:58|34=736|9998=374498|56=BRKR|49=INVMGR|9999=942396|10=101|8=FIXT.1.1|9=85|35=X|9997=1319|52=20111023-15:54:58|34=737|9998=374498|56=BRKR|49=INVMGR|9999=942440|10=101|8=FIXT.1.1|9=85|35=X|9997=1319|52=20111023-15:54:58|34=738|9998=374498|56=BRKR|49=INVMGR|9999=942479|10=101|8=FIXT.1.1|9=85|35=X|9997=1319|52=20111023-15:54:58|34=739|9998=374498|56=BRKR|49=INVMGR|9999=942522|10=101|8=FIXT.1.1|9=85|35=X|9997=1319|52=20111023-15:54:58|34=740|9998=374498|56=BRKR|49=INVMGR|9999=942563|10=101|8=FIXT.1.1|9=85|35=X|9997=1319|52=20111023-15:54:58|34=741|9998=374498|56=BRKR|49=INVMGR|9999=942979|10=101|8=FIXT.1.1|9=85|35=X|9997=1319|52=20111023-15:54:58|34=742|9998=374498|56=BRKR|49=INVMGR|9999=943038|10=101|8=FIXT.1.1|9=85|35=X|9997=1319|52=20111023-15:54:58|34=743|9998=374498|56=BRKR|49=INVMGR|9999=943083|10=101|8=FIXT.1.1|9=85|35=X|9997=1319|52=20111023-15:54:58|34=744|9998=374498|56=BRKR|49=INVMGR|9999=943126|10=101|8=FIXT.1.1|9=85|35=X|9997=1319|52=20111023-15:54:58|34=745|9998=374498|56=BRKR|49=INVMGR|9999=943168|10=101|8=FIXT.1.1|9=85|35=X|9997=1319|52=20111023-15:54:58|34=746|9998=374498|56=BRKR|49=INVMGR|9999=943210|10=101|8=FIXT.1.1|9=85|35=X|9997=1319|52=20111023-15:54:58|34=747|9998=374498|56=BRKR|49=INVMGR|9999=943252|10=101|8=FIXT.1.1|9=85|35=X|9997=1319|52=20111023-15:54:58|34=748|9998=374498|56=BRKR|49=INVMGR|9999=943293|10=101|8=FIXT.1.1|9=85|35=X|9997=1319|52=20111023-15:54:58|34=749|9998=374498|56=BRKR|49=INVMGR|9999=943336|10=101|8=FIXT.1.1|9=85|35=X|9997=1319|52=20111023-15:54:58|34=750|9998=374498|56=BRKR|49=INVMGR|9999=943375|10=101|8=FIXT.1.1|9=85|35=X|9997=1319|52=20111023-15:54:58|34=751|9998=374498|56=BRKR|49=INVMGR|9999=943424|10=101|8=FIXT.1.1|9=85|35=X|9997=1319|52=20111023-15:54:58|34=752|9998=374498|56=BRKR|49=INVMGR|9999=943464|10=101|8=FIXT.1.1|9=85|35=X|9997=1319|52=20111023-15:54:58|34=753|9998=374498|56=BRKR|49=INVMGR|9999=943507|10=101|8=FIXT.1.1|9=85|35=X|9997=1319|52=20111023-15:54:58|34=754|9998=374498|56=BRKR|49=INVMGR|9999=943548|10=101|8=FIXT.1.1|9=85|35=X|9997=1319|52=20111023-15:54:58|34=755|9998=374498|56=BRKR|49=INVMGR|9999=943591|10=101|8=FIXT.1.1|9=85|35=X|9997=1319|52=20111023-15:54:58|34=756|9998=374498|56=BRKR|49=INVMGR|9999=943633|10=101|8=FIXT.1.1|9=85|35=X|9997=1319|52=20111023-15:54:58|34=757|9998=374498|56=BRKR|49=INVMGR|9999=943676|10=101|8=FIXT.1.1|9=85|35=X|9997=1319|52=20111023-15:54:58|34=758|9998=374498|56=BRKR|49=INVMGR|9999=943715|10=101|8=FIXT.1.1|9=85|35=X|9997=1319|52=20111023-15:54:58|34=759|9998=374498|56=BRKR|49=INVMGR|9999=943763|10=101|8=FIXT.1.1|9=85|35=X|9997=1319|52=20111023-15:54:58|34=760|9998=374498|56=BRKR|49=INVMGR|9999=943803|10=101|8=FIXT.1.1|9=85|35=X|9997=1319|52=20111023-15:54:58|34=761|9998=374498|56=BRKR|49=INVMGR|9999=943847|10=101|8=FIXT.1.1|9=85|35=X|9997=1319|52=20111023-15:54:58|34=762|9998=374498|56=BRKR|49=INVMGR|9999=943887|10=101|8=FIXT.1.1|9=85|35=X|9997=1319|52=20111023-15:54:58|34=763|9998=374498|56=BRKR|49=INVMGR|9999=943932|10=101|8=FIXT.1.1|9=85|35=X|9997=1319|52=20111023-15:54:58|34=764|9998=374498|56=BRKR|49=INVMGR|9999=943979|10=101|8=FIXT.1.1|9=85|35=X|9997=1319|52=20111023-15:54:58|34=765|9998=374498|56=BRKR|49=INVMGR|9999=944024|10=101|8=FIXT.1.1|9=85|35=X|9997=1319|52=20111023-15:54:58|34=766|9998=374498|56=BRKR|49=INVMGR|9999=944062|10=101|8=FIXT.1.1|9=85|35=X|9997=1319|52=20111023-15:54:58|34=767|9998=374498|56=BRKR|49=INVMGR|9999=944112|10=101|8=FIXT.1.1|9=85|35=X|9997=1319|52=20111023-15:54:58|34=768|9998=374498|56=BRKR|49=INVMGR|9999=944152|10=101|8=FIXT.1.1|9=85|35=X|9997=1319|52=20111023-15:54:58|34=769|9998=374498|56=BRKR|49=INVMGR|9999=944194|10=101|8=FIXT.1.1|9=85|35=X|9997=1319|52=20111023-15:54:58|34=770|9998=374498|56=BRKR|49=INVMGR|9999=944235|10=101|8=FIXT.1.1|9=85|35=X|9997=1319|52=20111023-15:54:58|34=771|9998=374498|56=BRKR|49=INVMGR|9999=944280|10=101|8=FIXT.1.1|9=85|35=X|9997=1319|52=20111023-15:54:58|34=772|9998=374498|56=BRKR|49=INVMGR|9999=944323|10=101|8=FIXT.1.1|9=85|35=X|9997=1319|52=20111023-15:54:58|34=773|9998=374498|56=BRKR|49=INVMGR|9999=944367|10=101|8=FIXT.1.1|9=85|35=X|9997=1319|52=20111023-15:54:58|34=774|9998=374498|56=BRKR|49=INVMGR|9999=944409|10=101|8=FIXT.1.1|9=85|35=X|9997=1319|52=20111023-15:54:58|34=775|9998=374498|56=BRKR|49=INVMGR|9999=944454|10=101|8=FIXT.1.1|9=85|35=X|9997=1319|52=20111023-15:54:58|34=776|9998=374498|56=BRKR|49=INVMGR|9999=944499|10=101|8=FIXT.1.1|9=85|35=X|9997=1319|52=20111023-15:54:58|34=777|9998=374498|56=BRKR|49=INVMGR|9999=944544|10=101|8=FIXT.1.1|9=85|35=X|9997=1319|52=20111023-15:54:58|34=778|9998=374498|56=BRKR|49=INVMGR|9999=944987|10=101|8=FIXT.1.1|9=85|35=X|9997=1319|52=20111023-15:54:58|34=779|9998=374498|56=BRKR|49=INVMGR|9999=945046|10=101|8=FIXT.1.1|9=85|35=X|9997=1319|52=20111023-15:54:58|34=780|9998=374498|56=BRKR|49=INVMGR|9999=945090|10=101|8=FIXT.1.1|9=85|35=X|9997=1319|52=20111023-15:54:58|34=781|9998=374498|56=BRKR|49=INVMGR|9999=945135|10=101|8=FIXT.1.1|9=85|35=X|9997=1319|52=20111023-15:54:58|34=782|9998=374498|56=BRKR|49=INVMGR|9999=945174|10=101|8=FIXT.1.1|9=85|35=X|9997=1319|52=20111023-15:54:58|34=783|9998=374498|56=BRKR|49=INVMGR|9999=945219|10=101|8=FIXT.1.1|9=85|35=X|9997=1319|52=20111023-15:54:58|34=784|9998=374498|56=BRKR|49=INVMGR|9999=945264|10=101|8=FIXT.1.1|9=85|35=X|9997=1319|52=20111023-15:54:58|34=785|9998=374498|56=BRKR|49=INVMGR|9999=945307|10=101|8=FIXT.1.1|9=85|35=X|9997=1319|52=20111023-15:54:58|34=786|9998=374498|56=BRKR|49=INVMGR|9999=945347|10=101|8=FIXT.1.1|9=85|35=X|9997=1319|52=20111023-15:54:58|34=787|9998=374498|56=BRKR|49=INVMGR|9999=945388|10=101|8=FIXT.1.1|9=85|35=X|9997=1319|52=20111023-15:54:58|34=788|9998=374498|56=BRKR|49=INVMGR|9999=945430|10=101|8=FIXT.1.1|9=85|35=X|9997=1319|52=20111023-15:54:58|34=789|9998=374498|56=BRKR|49=INVMGR|9999=945473|10=101|8=FIXT.1.1|9=85|35=X|9997=1319|52=20111023-15:54:58|34=790|9998=374498|56=BRKR|49=INVMGR|9999=945512|10=101|8=FIXT.1.1|9=85|35=X|9997=1319|52=20111023-15:54:58|34=791|9998=374498|56=BRKR|49=INVMGR|9999=945556|10=101|8=FIXT.1.1|9=85|35=X|9997=1319|52=20111023-15:54:58|34=792|9998=374498|56=BRKR|49=INVMGR|9999=945604|10=101|8=FIXT.1.1|9=85|35=X|9997=1319|52=20111023-15:54:58|34=793|9998=374498|56=BRKR|49=INVMGR|9999=945644|10=101|8=FIXT.1.1|9=85|35=X|9997=1319|52=20111023-15:54:58|34=794|9998=374498|56=BRKR|49=INVMGR|9999=945682|10=101|8=FIXT.1.1|9=85|35=X|9997=1319|52=20111023-15:54:58|34=795|9998=374498|56=BRKR|49=INVMGR|9999=945723|10=101|8=FIXT.1.1|9=85|35=X|9997=1319|52=20111023-15:54:58|34=796|9998=374498|56=BRKR|49=INVMGR|9999=945766|10=101|8=FIXT.1.1|9=85|35=X|9997=1319|52=20111023-15:54:58|34=797|9998=374498|56=BRKR|49=INVMGR|9999=945808|10=101|8=FIXT.1.1|9=85|35=X|9997=1319|52=20111023-15:54:58|34=798|9998=374498|56=BRKR|49=INVMGR|9999=945848|10=101|8=FIXT.1.1|9=85|35=X|9997=1319|52=20111023-15:54:58|34=799|9998=374498|56=BRKR|49=INVMGR|9999=945892|10=101|8=FIXT.1.1|9=85|35=X|9997=1319|52=20111023-15:54:58|34=800|9998=374498|56=BRKR|49=INVMGR|9999=945933|10=101|8=FIXT.1.1|9=85|35=X|9997=1319|52=20111023-15:54:58|34=801|9998=374498|56=BRKR|49=INVMGR|9999=945986|10=101|8=FIXT.1.1|9=85|35=X|9997=1319|52=20111023-15:54:58|34=802|9998=374498|56=BRKR|49=INVMGR|9999=946028|10=101|8=FIXT.1.1|9=85|35=X|9997=1319|52=20111023-15:54:58|34=803|9998=374498|56=BRKR|49=INVMGR|9999=946071|10=101|8=FIXT.1.1|9=85|35=X|9997=1319|52=20111023-15:54:58|34=804|9998=374498|56=BRKR|49=INVMGR|9999=946110|10=101|8=FIXT.1.1|9=85|35=X|9997=1319|52=20111023-15:54:58|34=805|9998=374498|56=BRKR|49=INVMGR|9999=946157|10=101|8=FIXT.1.1|9=85|35=X|9997=1319|52=20111023-15:54:58|34=806|9998=374498|56=BRKR|49=INVMGR|9999=946193|10=101|8=FIXT.1.1|9=85|35=X|9997=1319|52=20111023-15:54:58|34=807|9998=374498|56=BRKR|49=INVMGR|9999=946227|10=101|8=FIXT.1.1|9=85|35=X|9997=1319|52=20111023-15:54:58|34=808|9998=374498|56=BRKR|49=INVMGR|9999=946269|10=101|8=FIXT.1.1|9=85|35=X|9997=1319|52=20111023-15:54:58|34=809|9998=374498|56=BRKR|49=INVMGR|9999=946317|10=101|8=FIXT.1.1|9=85|35=X|9997=1319|52=20111023-15:54:58|34=810|9998=374498|56=BRKR|49=INVMGR|9999=946358|10=101|8=FIXT.1.1|9=85|35=X|9997=1319|52=20111023-15:54:58|34=811|9998=374498|56=BRKR|49=INVMGR|9999=946401|10=101|8=FIXT.1.1|9=85|35=X|9997=1319|52=20111023-15:54:58|34=812|9998=374498|56=BRKR|49=INVMGR|9999=946441|10=101|8=FIXT.1.1|9=85|35=X|9997=1319|52=20111023-15:54:58|34=813|9998=374498|56=BRKR|49=INVMGR|9999=946484|10=101|8=FIXT.1.1|9=85|35=X|9997=1319|52=20111023-15:54:58|34=814|9998=374498|56=BRKR|49=INVMGR|9999=946525|10=101|8=FIXT.1.1|9=85|35=X|9997=1319|52=20111023-15:54:58|34=815|9998=374498|56=BRKR|49=INVMGR|9999=946568|10=101|8=FIXT.1.1|9=85|35=X|9997=1319|52=20111023-15:54:58|34=816|9998=374498|56=BRKR|49=INVMGR|9999=946605|10=101|8=FIXT.1.1|9=85|35=X|9997=1319|52=20111023-15:54:58|34=817|9998=374498|56=BRKR|49=INVMGR|9999=946654|10=101|8=FIXT.1.1|9=85|35=X|9997=1319|52=20111023-15:54:58|34=818|9998=374498|56=BRKR|49=INVMGR|9999=946695|10=101|8=FIXT.1.1|9=85|35=X|9997=1319|52=20111023-15:54:58|34=819|9998=374498|56=BRKR|49=INVMGR|9999=946737|10=101|8=FIXT.1.1|9=85|35=X|9997=1319|52=20111023-15:54:58|34=820|9998=374498|56=BRKR|49=INVMGR|9999=946778|10=101|8=FIXT.1.1|9=85|35=X|9997=1319|52=20111023-15:54:58|34=821|9998=374498|56=BRKR|49=INVMGR|9999=946824|10=101|8=FIXT.1.1|9=85|35=X|9997=1319|52=20111023-15:54:58|34=822|9998=374498|56=BRKR|49=INVMGR|9999=946865|10=101|8=FIXT.1.1|9=85|35=X|9997=1319|52=20111023-15:54:58|34=823|9998=374498|56=BRKR|49=INVMGR|9999=946907|10=101|8=FIXT.1.1|9=85|35=X|9997=1319|52=20111023-15:54:58|34=824|9998=374498|56=BRKR|49=INVMGR|9999=946948|10=101|8=FIXT.1.1|9=85|35=X|9997=1319|52=20111023-15:54:58|34=825|9998=374498|56=BRKR|49=INVMGR|9999=947001|10=101|8=FIXT.1.1|9=85|35=X|9997=1319|52=20111023-15:54:58|34=826|9998=374498|56=BRKR|49=INVMGR|9999=947043|10=101|8=FIXT.1.1|9=85|35=X|9997=1319|52=20111023-15:54:58|34=827|9998=374498|56=BRKR|49=INVMGR|9999=947086|10=101|8=FIXT.1.1|9=85|35=X|9997=1319|52=20111023-15:54:58|34=828|9998=374498|56=BRKR|49=INVMGR|9999=947127|10=101|8=FIXT.1.1|9=85|35=X|9997=1319|52=20111023-15:54:58|34=829|9998=374498|56=BRKR|49=INVMGR|9999=947169|10=101|8=FIXT.1.1|9=85|35=X|9997=1319|52=20111023-15:54:58|34=830|9998=374498|56=BRKR|49=INVMGR|9999=947211|10=101|8=FIXT.1.1|9=85|35=X|9997=1319|52=20111023-15:54:58|34=831|9998=374498|56=BRKR|49=INVMGR|9999=947254|10=101|8=FIXT.1.1|9=85|35=X|9997=1319|52=20111023-15:54:58|34=832|9998=374498|56=BRKR|49=INVMGR|9999=947291|10=101|8=FIXT.1.1|9=85|35=X|9997=1319|52=20111023-15:54:58|34=833|9998=374498|56=BRKR|49=INVMGR|9999=947335|10=101|8=FIXT.1.1|9=85|35=X|9997=1319|52=20111023-15:54:58|34=834|9998=374498|56=BRKR|49=INVMGR|9999=947380|10=101|8=FIXT.1.1|9=85|35=X|9997=1319|52=20111023-15:54:58|34=835|9998=374498|56=BRKR|49=INVMGR|9999=947422|10=101|8=FIXT.1.1|9=85|35=X|9997=1319|52=20111023-15:54:58|34=836|9998=374498|56=BRKR|49=INVMGR|9999=947463|10=101|8=FIXT.1.1|9=85|35=X|9997=1319|52=20111023-15:54:58|34=837|9998=374498|56=BRKR|49=INVMGR|9999=947506|10=101|8=FIXT.1.1|9=85|35=X|9997=1319|52=20111023-15:54:58|34=838|9998=374498|56=BRKR|49=INVMGR|9999=947547|10=101|8=FIXT.1.1|9=85|35=X|9997=1319|52=20111023-15:54:58|34=839|9998=374498|56=BRKR|49=INVMGR|9999=947590|10=101|8=FIXT.1.1|9=85|35=X|9997=1319|52=20111023-15:54:58|34=840|9998=374498|56=BRKR|49=INVMGR|9999=947630|10=101|8=FIXT.1.1|9=85|35=X|9997=1319|52=20111023-15:54:58|34=841|9998=374498|56=BRKR|49=INVMGR|9999=947673|10=101|8=FIXT.1.1|9=85|35=X|9997=1319|52=20111023-15:54:58|34=842|9998=374498|56=BRKR|49=INVMGR|9999=947718|10=101|8=FIXT.1.1|9=85|35=X|9997=1319|52=20111023-15:54:58|34=843|9998=374498|56=BRKR|49=INVMGR|9999=947761|10=101|8=FIXT.1.1|9=85|35=X|9997=1319|52=20111023-15:54:58|34=844|9998=374498|56=BRKR|49=INVMGR|9999=947800|10=101|8=FIXT.1.1|9=85|35=X|9997=1319|52=20111023-15:54:58|34=845|9998=374498|56=BRKR|49=INVMGR|9999=947842|10=101|8=FIXT.1.1|9=85|35=X|9997=1319|52=20111023-15:54:58|34=846|9998=374498|56=BRKR|49=INVMGR|9999=947886|10=101|8=FIXT.1.1|9=85|35=X|9997=1319|52=20111023-15:54:58|34=847|9998=374498|56=BRKR|49=INVMGR|9999=947929|10=101|8=FIXT.1.1|9=85|35=X|9997=1319|52=20111023-15:54:58|34=848|9998=374498|56=BRKR|49=INVMGR|9999=948146|10=101|8=FIXT.1.1|9=85|35=X|9997=1319|52=20111023-15:54:58|34=849|9998=374498|56=BRKR|49=INVMGR|9999=948205|10=101|8=FIXT.1.1|9=85|35=X|9997=1319|52=20111023-15:54:58|34=850|9998=374498|56=BRKR|49=INVMGR|9999=948253|10=101|8=FIXT.1.1|9=85|35=X|9997=1319|52=20111023-15:54:58|34=851|9998=374498|56=BRKR|49=INVMGR|9999=948298|10=101|8=FIXT.1.1|9=85|35=X|9997=1319|52=20111023-15:54:58|34=852|9998=374498|56=BRKR|49=INVMGR|9999=948338|10=101|8=FIXT.1.1|9=85|35=X|9997=1319|52=20111023-15:54:58|34=853|9998=374498|56=BRKR|49=INVMGR|9999=948380|10=101|8=FIXT.1.1|9=85|35=X|9997=1319|52=20111023-15:54:58|34=854|9998=374498|56=BRKR|49=INVMGR|9999=948422|10=101|8=FIXT.1.1|9=85|35=X|9997=1319|52=20111023-15:54:58|34=855|9998=374498|56=BRKR|49=INVMGR|9999=948465|10=101|8=FIXT.1.1|9=85|35=X|9997=1319|52=20111023-15:54:58|34=856|9998=374498|56=BRKR|49=INVMGR|9999=948505|10=101|8=FIXT.1.1|9=85|35=X|9997=1319|52=20111023-15:54:58|34=857|9998=374498|56=BRKR|49=INVMGR|9999=948548|10=101|8=FIXT.1.1|9=85|35=X|9997=1319|52=20111023-15:54:58|34=858|9998=374498|56=BRKR|49=INVMGR|9999=948588|10=101|8=FIXT.1.1|9=85|35=X|9997=1319|52=20111023-15:54:58|34=859|9998=374498|56=BRKR|49=INVMGR|9999=948635|10=101|8=FIXT.1.1|9=85|35=X|9997=1319|52=20111023-15:54:58|34=860|9998=374498|56=BRKR|49=INVMGR|9999=948675|10=101|8=FIXT.1.1|9=85|35=X|9997=1319|52=20111023-15:54:58|34=861|9998=374498|56=BRKR|49=INVMGR|9999=948716|10=101|8=FIXT.1.1|9=85|35=X|9997=1319|52=20111023-15:54:58|34=862|9998=374498|56=BRKR|49=INVMGR|9999=948756|10=101|8=FIXT.1.1|9=85|35=X|9997=1319|52=20111023-15:54:58|34=863|9998=374498|56=BRKR|49=INVMGR|9999=948801|10=101|8=FIXT.1.1|9=85|35=X|9997=1319|52=20111023-15:54:58|34=864|9998=374498|56=BRKR|49=INVMGR|9999=948840|10=101|8=FIXT.1.1|9=85|35=X|9997=1319|52=20111023-15:54:58|34=865|9998=374498|56=BRKR|49=INVMGR|9999=948882|10=101|8=FIXT.1.1|9=85|35=X|9997=1319|52=20111023-15:54:58|34=866|9998=374498|56=BRKR|49=INVMGR|9999=948921|10=101|8=FIXT.1.1|9=85|35=X|9997=1319|52=20111023-15:54:58|34=867|9998=374498|56=BRKR|49=INVMGR|9999=948975|10=101|8=FIXT.1.1|9=85|35=X|9997=1319|52=20111023-15:54:58|34=868|9998=374498|56=BRKR|49=INVMGR|9999=949015|10=101|8=FIXT.1.1|9=85|35=X|9997=1319|52=20111023-15:54:58|34=869|9998=374498|56=BRKR|49=INVMGR|9999=949059|10=101|8=FIXT.1.1|9=85|35=X|9997=1319|52=20111023-15:54:58|34=870|9998=374498|56=BRKR|49=INVMGR|9999=949101|10=101|8=FIXT.1.1|9=85|35=X|9997=1319|52=20111023-15:54:58|34=871|9998=374498|56=BRKR|49=INVMGR|9999=949146|10=101|8=FIXT.1.1|9=85|35=X|9997=1319|52=20111023-15:54:58|34=872|9998=374498|56=BRKR|49=INVMGR|9999=949187|10=101|8=FIXT.1.1|9=85|35=X|9997=1319|52=20111023-15:54:58|34=873|9998=374498|56=BRKR|49=INVMGR|9999=949232|10=101|8=FIXT.1.1|9=85|35=X|9997=1319|52=20111023-15:54:58|34=874|9998=374498|56=BRKR|49=INVMGR|9999=949270|10=101|8=FIXT.1.1|9=85|35=X|9997=1319|52=20111023-15:54:58|34=875|9998=374498|56=BRKR|49=INVMGR|9999=949319|10=101|8=FIXT.1.1|9=85|35=X|9997=1319|52=20111023-15:54:58|34=876|9998=374498|56=BRKR|49=INVMGR|9999=949360|10=101|8=FIXT.1.1|9=85|35=X|9997=1319|52=20111023-15:54:58|34=877|9998=374498|56=BRKR|49=INVMGR|9999=949400|10=101|8=FIXT.1.1|9=85|35=X|9997=1319|52=20111023-15:54:58|34=878|9998=374498|56=BRKR|49=INVMGR|9999=949441|10=101|8=FIXT.1.1|9=85|35=X|9997=1319|52=20111023-15:54:58|34=879|9998=374498|56=BRKR|49=INVMGR|9999=949485|10=101|8=FIXT.1.1|9=85|35=X|9997=1319|52=20111023-15:54:58|34=880|9998=374498|56=BRKR|49=INVMGR|9999=949523|10=101|8=FIXT.1.1|9=85|35=X|9997=1319|52=20111023-15:54:58|34=881|9998=374498|56=BRKR|49=INVMGR|9999=949566|10=101|8=FIXT.1.1|9=85|35=X|9997=1319|52=20111023-15:54:58|34=882|9998=374498|56=BRKR|49=INVMGR|9999=949608|10=101|8=FIXT.1.1|9=85|35=X|9997=1319|52=20111023-15:54:58|34=883|9998=374498|56=BRKR|49=INVMGR|9999=949652|10=101|8=FIXT.1.1|9=85|35=X|9997=1319|52=20111023-15:54:58|34=884|9998=374498|56=BRKR|49=INVMGR|9999=949692|10=101|8=FIXT.1.1|9=85|35=X|9997=1319|52=20111023-15:54:58|34=885|9998=374498|56=BRKR|49=INVMGR|9999=949737|10=101|8=FIXT.1.1|9=85|35=X|9997=1319|52=20111023-15:54:58|34=886|9998=374498|56=BRKR|49=INVMGR|9999=949776|10=101|8=FIXT.1.1|9=85|35=X|9997=1319|52=20111023-15:54:58|34=887|9998=374498|56=BRKR|49=INVMGR|9999=949820|10=101|8=FIXT.1.1|9=85|35=X|9997=1319|52=20111023-15:54:58|34=888|9998=374498|56=BRKR|49=INVMGR|9999=949861|10=101|8=FIXT.1.1|9=85|35=X|9997=1319|52=20111023-15:54:58|34=889|9998=374498|56=BRKR|49=INVMGR|9999=949904|10=101|8=FIXT.1.1|9=85|35=X|9997=1319|52=20111023-15:54:58|34=890|9998=374498|56=BRKR|49=INVMGR|9999=949945|10=101|8=FIXT.1.1|9=85|35=X|9997=1319|52=20111023-15:54:58|34=891|9998=374498|56=BRKR|49=INVMGR|9999=949992|10=101|8=FIXT.1.1|9=85|35=X|9997=1319|52=20111023-15:54:58|34=892|9998=374498|56=BRKR|49=INVMGR|9999=950039|10=101|8=FIXT.1.1|9=85|35=X|9997=1319|52=20111023-15:54:58|34=893|9998=374498|56=BRKR|49=INVMGR|9999=950080|10=101|8=FIXT.1.1|9=85|35=X|9997=1319|52=20111023-15:54:58|34=894|9998=374498|56=BRKR|49=INVMGR|9999=950120|10=101|8=FIXT.1.1|9=85|35=X|9997=1319|52=20111023-15:54:58|34=895|9998=374498|56=BRKR|49=INVMGR|9999=950164|10=101|8=FIXT.1.1|9=85|35=X|9997=1319|52=20111023-15:54:58|34=896|9998=374498|56=BRKR|49=INVMGR|9999=950206|10=101|8=FIXT.1.1|9=85|35=X|9997=1319|52=20111023-15:54:58|34=897|9998=374498|56=BRKR|49=INVMGR|9999=950251|10=101|8=FIXT.1.1|9=85|35=X|9997=1319|52=20111023-15:54:58|34=898|9998=374498|56=BRKR|49=INVMGR|9999=950293|10=101|8=FIXT.1.1|9=85|35=X|9997=1319|52=20111023-15:54:58|34=899|9998=374498|56=BRKR|49=INVMGR|9999=950337|10=101|8=FIXT.1.1|9=85|35=X|9997=1319|52=20111023-15:54:58|34=900|9998=374498|56=BRKR|49=INVMGR|9999=950383|10=101|8=FIXT.1.1|9=85|35=X|9997=1319|52=20111023-15:54:58|34=901|9998=374498|56=BRKR|49=INVMGR|9999=950427|10=101|8=FIXT.1.1|9=85|35=X|9997=1319|52=20111023-15:54:58|34=902|9998=374498|56=BRKR|49=INVMGR|9999=950469|10=101|8=FIXT.1.1|9=85|35=X|9997=1319|52=20111023-15:54:58|34=903|9998=374498|56=BRKR|49=INVMGR|9999=950513|10=101|8=FIXT.1.1|9=85|35=X|9997=1319|52=20111023-15:54:58|34=904|9998=374498|56=BRKR|49=INVMGR|9999=950555|10=101|8=FIXT.1.1|9=85|35=X|9997=1319|52=20111023-15:54:58|34=905|9998=374498|56=BRKR|49=INVMGR|9999=950600|10=101|8=FIXT.1.1|9=85|35=X|9997=1319|52=20111023-15:54:58|34=906|9998=374498|56=BRKR|49=INVMGR|9999=950640|10=101|8=FIXT.1.1|9=85|35=X|9997=1319|52=20111023-15:54:58|34=907|9998=374498|56=BRKR|49=INVMGR|9999=950685|10=101|8=FIXT.1.1|9=85|35=X|9997=1319|52=20111023-15:54:58|34=908|9998=374498|56=BRKR|49=INVMGR|9999=950731|10=101|8=FIXT.1.1|9=85|35=X|9997=1319|52=20111023-15:54:58|34=909|9998=374498|56=BRKR|49=INVMGR|9999=950775|10=101|8=FIXT.1.1|9=85|35=X|9997=1319|52=20111023-15:54:58|34=910|9998=374498|56=BRKR|49=INVMGR|9999=950814|10=101|8=FIXT.1.1|9=85|35=X|9997=1319|52=20111023-15:54:58|34=911|9998=374498|56=BRKR|49=INVMGR|9999=950859|10=101|8=FIXT.1.1|9=85|35=X|9997=1319|52=20111023-15:54:58|34=912|9998=374498|56=BRKR|49=INVMGR|9999=950900|10=101|8=FIXT.1.1|9=85|35=X|9997=1319|52=20111023-15:54:58|34=913|9998=374498|56=BRKR|49=INVMGR|9999=950946|10=101|8=FIXT.1.1|9=85|35=X|9997=1319|52=20111023-15:54:58|34=914|9998=374498|56=BRKR|49=INVMGR|9999=950994|10=101|8=FIXT.1.1|9=85|35=X|9997=1319|52=20111023-15:54:58|34=915|9998=374498|56=BRKR|49=INVMGR|9999=951040|10=101|8=FIXT.1.1|9=85|35=X|9997=1319|52=20111023-15:54:58|34=916|9998=374498|56=BRKR|49=INVMGR|9999=951081|10=101|8=FIXT.1.1|9=85|35=X|9997=1319|52=20111023-15:54:58|34=917|9998=374498|56=BRKR|49=INVMGR|9999=951130|10=101|8=FIXT.1.1|9=85|35=X|9997=1319|52=20111023-15:54:58|34=918|9998=374498|56=BRKR|49=INVMGR|9999=951172|10=101|8=FIXT.1.1|9=85|35=X|9997=1319|52=20111023-15:54:58|34=919|9998=374498|56=BRKR|49=INVMGR|9999=951216|10=101|8=FIXT.1.1|9=85|35=X|9997=1319|52=20111023-15:54:58|34=920|9998=374498|56=BRKR|49=INVMGR|9999=951256|10=101|8=FIXT.1.1|9=85|35=X|9997=1319|52=20111023-15:54:58|34=921|9998=374498|56=BRKR|49=INVMGR|9999=951299|10=101|8=FIXT.1.1|9=85|35=X|9997=1319|52=20111023-15:54:58|34=922|9998=374498|56=BRKR|49=INVMGR|9999=951338|10=101|8=FIXT.1.1|9=85|35=X|9997=1319|52=20111023-15:54:58|34=923|9998=374498|56=BRKR|49=INVMGR|9999=951382|10=101|8=FIXT.1.1|9=85|35=X|9997=1319|52=20111023-15:54:58|34=924|9998=374498|56=BRKR|49=INVMGR|9999=951423|10=101|8=FIXT.1.1|9=85|35=X|9997=1319|52=20111023-15:54:58|34=925|9998=374498|56=BRKR|49=INVMGR|9999=951472|10=101|8=FIXT.1.1|9=85|35=X|9997=1319|52=20111023-15:54:58|34=926|9998=374498|56=BRKR|49=INVMGR|9999=951515|10=101|8=FIXT.1.1|9=85|35=X|9997=1319|52=20111023-15:54:58|34=927|9998=374498|56=BRKR|49